:020000040800F2
:10000000E8080020A90100086F400008AD3500088D
:100010006D400008C11400083544000800000000CD
:10002000000000000000000000000000AD400008DB
:10003000F11900080000000071400008AF400008FE
:10004000C3010008C3010008C3010008C301000880
:10005000C3010008C3010008C3010008F319000828
:10006000C3010008F9190008FF190008C3010008BE
:10007000C3010008C3010008C3010008C301000850
:10008000C3010008C3010008C3010008C301000840
:10009000C3010008C3010008C3010008051A0008D5
:1000A000C3010008C3010008C3010008C301000820
:1000B000C3010008C3010008C3010008C301000810
:1000C000C3010008C3010008C3010008C301000800
:1000D000C3010008C3010008C3010008C3010008F0
:1000E000C3010008C3010008C301000800F002F8C2
:1000F00000F04AF80AA090E8000C82448344AAF178
:100100000107DA4501D100F03FF8AFF2090EBAE875
:100110000F0013F0010F18BFFB1A43F0010318473B
:1001200090510000B0510000103A24BF78C878C147
:10013000FAD8520724BF30C830C144BF04680C60ED
:10014000704700000023002400250026103A28BF35
:1001500078C1FBD8520728BF30C148BF0B60704739
:10016000662904F0BA87642900F07A80002070477D
:100170001FB500F0FDFB04000020002104F0BAFBD5
:10018000E0601FBD10B510BD00F0F2FC1146FFF796
:10019000EFFF04F0C3FA00F010FD03B4FFF7F2FF25
:1001A00003BC00F053FD00000948804709480047A0
:1001B000FEE7FEE7FEE7FEE7FEE7FEE7FEE7FEE717
:1001C000FEE7FEE704480549054A064B7047000074
:1001D00035410008ED000008E8020020E808002092
:1001E000E8040020E80400200FB41CB5074B06AA61
:1001F0007B4469460090059800F0A1FB0020694609
:1002000000F0B0FB1CBC5DF814FB0000710700009F
:1002100070B5044685690068C10601D5302600E046
:100220002026C00707D070BDD4E901213046904791
:10023000206A401C20626D1EF6D570BD70B5044664
:1002400085690078C00707D170BDD4E9012120205D
:100250009047206A401C20626D1EF6D570BD0000DC
:100260002DE9F0410646002410687529314616A58F
:1002700010D0AFF30080002802DA404213A507E057
:1002800031688A0701D512A502E0490704D511A5F6
:10029000012401E0AFF3008000210A2206F12407C7
:1002A00009E0B0FBF2FCB0FBF2F302FB1C003030C3
:1002B00078541846491C0028F3D123462A46304674
:1002C000BDE8F04100F0CEB8000000002D000000B5
:1002D0002B000000200000002DE9F05F8946044655
:1002E0004FF0000ADFF824B1FB44C0F820A02046FC
:1002F000E168884700287DD0252806D0D4E901216F
:100300009047206A401C2062F1E700255F462046A6
:10031000E16888472028064607DB312E05D2B81948
:1003200010F8200C08B10543F1E7A80701D525F026
:100330000405C4F81CA00027C4F818A02A2E09D070
:10034000304604F09CF838B304EB8708303EC8F818
:10035000186019E059F8041B204604EB87029161EC
:10036000E1688847012F064618D1E069002820DAA5
:1003700025F020051DE0D8F8180000EB800006EB02
:1003800040003038C8F818002046E1688847064623
:1003900004F075F80028EED1012F0AD02E2E08D1D6
:1003A0002046E16888477F1C0646022F45F020055D
:1003B000C4DBA069002803DA404245F00105A061D2
:1003C000E80701D025F01005A6B1A6F141001928D3
:1003D00002D8203645F400654A463146204625605D
:1003E0004D46FFF7BDFE60B1012807D0ED1D25F099
:1003F000070000E007E000F1080978E705F10409CB
:1004000075E730467AE7206ABDE8F09F1E4F00008E
:100410004FF0000200B5134694469646203922BF9D
:10042000A0E80C50A0E80C50B1F12001BFF4F7AFE8
:10043000090728BFA0E80C5048BF0CC05DF804EBCA
:10044000890028BF40F8042B08BF704748BF20F838
:10045000022B11F0804F18BF00F8012B7047704736
:10046000704770472DE9F0470D469946924604467D
:1004700000F124080168880604D5E06921F0100124
:10048000216000E00120A84201DD471B00E00027B9
:10049000A1697A1902EB0900081AA0612078C00648
:1004A00002D42046FFF7B4FE002608E0D4E901217B
:1004B0001AF806009047206A401C761C20624E45C0
:1004C000F4DB2078C0060AD52046FFF7A1FE06E03F
:1004D000D4E9012130209047206A401C2062381E58
:1004E000A7F10107F4DC07E0D4E9012118F80500C1
:1004F0009047206A401C2062281EA5F10105F3DC0C
:100500002046FFF79BFE2078000602D50220BDE8BA
:10051000F0870120FBE770472DE9FF4F0C461E4690
:100520004FF0FF378BB0D2E90001DDF860800A9010
:100530008A46C1F30A5505B93D46002108464FF0E9
:100540000000BAF1000F00F4400005DA00EB800073
:100550004FF4400101EA50004FEA9059B9F1010F00
:1005600000DDB9460A9850EA4A000ED044F6105011
:10057000A5F2FF3545432F14B8F1000F1ED0754288
:10058000291E1EDDC9F100021CE0B8F1010F4FF079
:10059000000001D0302103E0F24305E02154401C6B
:1005A000B042FBDB30460022002121540B99C1F8F8
:1005B0000880C1E900200FB0BDE8F08FBD1B6D1CA5
:1005C000DEE74A4600DA694206A800F05BFA06ABAD
:1005D00093E8070003AB83E8070050460A9900F050
:1005E0003CFB8DE80700A0F500501F3800900398F1
:1005F000002D0ADD42F21F014A460844002303A9E8
:100600000390684600F0A5FD09E0A0F500504A46B9
:100610001F38002303A90390684600F0AFFD8DE862
:1006200007000004000C03D04FF0FF30410800E049
:100630001046B8F1000F03D00022009215461EE0CC
:10064000751E05D400F098F9303262556D1EF9D54B
:10065000B3460122084302D000227F1C04E0207828
:10066000302801D100227F1E002A099784D01DE086
:10067000112D07DA00F080F9303262556D1C50EA16
:100680000102F5D1084302D00098C8B10EE0002164
:10069000681E05E0235C625C63542254401E491CC2
:1006A0008142F7DBAB46A81B401E0990002004F8EE
:1006B0000B000B98099AC0F80880C0E9002B7AE774
:1006C00011264FF0000857E72DE9F04F8846044601
:1006D000D21D22F0070191B0D1E90001CDE90A0154
:1006E00003F0A9FE02460B98C00F01D02D2007E0B1
:1006F0002068810701D52B2002E0202101EAC000FB
:10070000032A099001D0072A05DB0346414620460B
:1007100000F078F90BE12078800601D5E06900E06F
:100720000620B8F1650F814606D0B8F1660F18D0E3
:10073000B8F1670F70D131E00020B9F1110F0090CE
:1007400001DB112301E009F101030AAA01A90CA8A8
:10075000FFF7E2FEDDE90C70002609F10105834692
:1007600047E001204B4600904FF000470AAA01A93C
:100770000CA8FFF7D1FEDDE90DB00C995D4600260F
:1007800010B909F101000D18B9EB050003D4C0F14F
:10079000FF3609F10105A5EB09002BE0B9F1010FC6
:1007A00001DA4FF001090020B9F1110F009048461D
:1007B00001DD112300E003460AAA01A90CA8FFF7F6
:1007C000ABFEDDE90C704D4600268346207800071D
:1007D0000AD4AB4500DA5D4601A8012D04DD4119BC
:1007E00011F8011C302907D04F4502DA17F1040F28
:1007F00004DA012082460FE06D1EEEE7002F02DCD6
:10080000ED1B3E4403E0781CA84200DD7D1CB81BB4
:1008100000F1010A4FF000472078000703D4AA45F1
:1008200001DB4FF0FF3A0021B7F1004F0DF1430813
:100830008DF8431024D002202B23002F01DA7F42B1
:100840002D230A21021EA0F1010000DC5FB197FBFD
:10085000F1FC97FBF1F201FB1C7C17460CF1300C0C
:1008600008F801CDEEE7A8F1010003702188090521
:1008700001D5452100E06521A0F1010800F8011C27
:1008800009980FA9A1EB0807FF1D00B1012041192C
:1008900001EBEA70A1693844081A401EA061207873
:1008A000C00602D42046FFF7B3FC099828B1D4E96A
:1008B00001219047206A401C20622078C00622D582
:1008C0002046FFF7A5FC1EE0002E04DBB34502DD49
:1008D00001A8805D00E03020D4E901219047206A22
:1008E000401C2062761CAAF101005FEA000A0AD1CE
:1008F00000F03EF8C0680168405CD4E901219047EF
:10090000206A401C2062281EA5F10105DCDC07E0FE
:10091000D4E9012118F8010B9047206A401C20629D
:10092000381EA7F10107F3DC2046FFF787FC032000
:1009300011B041E601694A1C02610878704700B5B0
:100940008FB0CDE901310021059105497944CDE908
:10095000031011466846FFF7BFFC0FB000BD000052
:10096000E5FFFFFF0A6802F8010B0A60704700000C
:1009700000487047A402002030B5B0F10A024FEAE7
:10098000900E71F100034EEA817EB0EB0E0061EB38
:1009900091014FEA101E4EEA017E10EB0E0041EB72
:1009A00011114FEA102E4EEA016E10EB0E0041EBD2
:1009B00011214FEA104E4EEA014E10EB0E0041EBB2
:1009C0001141401841F100014FEAD00040EA417066
:1009D0004FEAD10110EB80054FEA810444EA90749C
:1009E00044EB01046D1944EB0404521BA3414FF086
:1009F000000348BF0A3200D530BD401C41F1000160
:100A000030BD00002DE9F0411F4604460326016871
:100A1000072A01F4006004DB08B116A505E016A55D
:100A200003E008B115A500E015A521F01000206035
:100A3000A069C01EA0610FB1401EA0612046FFF753
:100A4000E7FB4FB1D4E9012138469047206A401CAA
:100A50002062C01C206206E0206AFAE7D4E9012186
:100A600015F8010B9047761EF8D22046FFF7E6FBFB
:100A7000BDE8F0814E414E006E616E00494E460069
:100A8000696E66002DE9F047814616468AB0354802
:100A900078440DC88DE80D0032487844801C03ACC2
:100AA0000DC884E80D0041F69B300844372190FBC7
:100AB000F1F290FBF1F5A5F1800501FB12041B3C5E
:100AC00002D56442012000E00020DFF898A08046B3
:100AD0000027FA44AAF1BE0A0EE0E0070AD0324627
:100AE000684607EB470101230AEB810100F046FB52
:100AF0008DE8070064107F1C002CEED1194F7F4455
:100B0000AE3F19E0E80715D007EB04100DF1180A05
:100B100090E80E008AE80E00C068F04201D19819F2
:100B200008903246012306A903A800F027FB03AB77
:100B300083E807006D10641C002DE3D14FF0010322
:100B400032466946B8F1000F03A802D000F001FB5D
:100B500001E000F013FBC9E90001C9F808200AB060
:100B6000BDE8F08704480000004870478402002078
:100B70007546FFF7F9FFAE4605006946534620F07B
:100B80000700854618B020B5FFF71CFBBDE82040E4
:100B90004FF000064FF000074FF000084FF0000B39
:100BA00021F00701AC46ACE8C009ACE8C009ACE8EC
:100BB000C009ACE8C0098D46704710B50446AFF3D4
:100BC00000802046BDE81040FFF7E7BA4FF0013C37
:100BD00050F8042B51F8043B9A4221D1A2EB0C03AC
:100BE000934313EACC1317D150F8042B51F8043B6C
:100BF0009A4215D1A2EB0C03934313EACC130BD109
:100C000050F8042B51F8043B9A4209D1A2EB0C0393
:100C1000934313EACC13DBD04FF00000704700BFC2
:100C2000D01A01BAB1FA81F101F0180122FA01F0EB
:100C3000CB40C1F12001DBB2C0B2C01A2CFA01F3E3
:100C4000D11A914311EAC311E6D170470149182026
:100C5000ABBEFEE72600020070475FEA400C08BF0B
:100C600091F0000F4FEA8C234FEAC12243EA515121
:100C70004FEA1C5018BF00F5F0404FEA300018BF93
:100C800041F000415FEA6C5C00F02980BCF1FF3F5D
:100C900008BF40F080407047130C06BF12044FF0AD
:100CA000100C4FF0000C130E04BF12020CF1080CD4
:100CB000130F04BF12010CF1040C930F04BF920038
:100CC0000CF1020CD30F04BF52000CF1010C1146C1
:100CD0004FF00002A0F11F00A0EB0C00704711F0D4
:100CE000004F08BF704731F000413FF4D5AF0B0C07
:100CF00006BF09044FF0100C4FF0000C0B0E04BFA0
:100D000009020CF1080C0B0F04BF09010CF1040CD3
:100D10008B0F04BF89000CF1020CCB0F04BF4900FC
:100D20000CF1010CCCF12003A0EB0C0022FA03F330
:100D300002FA0CF241EA030100F10100704720F0D1
:100D40007F4C80EA030023F07F47ACEB070303F5F9
:100D50007C5300F0004003F1FF032DE980494FEA86
:100D6000154B09B44FEA144325EA0B4E24EA034815
:100D70000FF2042606EB132749083E785FEA320299
:100D800003FB0667C7F5000707FB06F64FEA543773
:100D90004FEAD64606F1020607FB066CCCF1005C72
:100DA0004FEA1C472CEA074C07FB06F40CFB06F540
:100DB00004EB15464FEA961634BF00204FF0004072
:100DC0004FEAD13706FB07FC4FEA1C4C0CFB0BF734
:100DD000D21B03FB0CF761EB07010CFB0EF7B0EB2A
:100DE000074072EB17420CFB08F734BFA2EB074237
:100DF000B2EB074261EB17414FEA0C444FEA91070F
:100E000006FB07FC4FEA1C4C0CFB0BF7B0EBC74092
:100E100072EB573203FB0CF734BFA2EBC742B2EBC5
:100E2000C74261EB57310CFB0EF7B0EBC70072EB1A
:100E300057720CFB08F734BFA2EBC702B2EBC70234
:100E400061EB5771039F4FEA816141EA921104EB14
:100E5000CC044FEAD1374FEA826206FB07FC42EA34
:100E600090124FEA80604FEA1C4C0CFB0BF7D21B30
:100E700003FB0CF761EB07010CFB0EF7B0EB07402F
:100E800072EB17420CFB08F734BFA2EB0742B2EB40
:100E9000074261EB17414FEA8C554FEA910704EB8B
:100EA0009C2406FB07FC4FEA1C4C0CFB0BF7B0EB39
:100EB000C74072EB573203FB0CF734BFA2EBC742BB
:100EC000B2EBC74261EB57310CFB0EF7B0EBC7003A
:100ED00072EB57720CFB08F734BFA2EBC702B2EB00
:100EE000C70261EB577115EB4C254FEA816141EA6E
:100EF00092114FEA82624FEAD13742EA901206FB22
:100F000007FC44F100044FEA80604FEA1C4C0CFBE4
:100F10000BF7D21B03FB0CF761EB07010CFB0EF781
:100F2000B0EB074072EB17420CFB08F734BFA2EBA3
:100F30000742B2EB074261EB174115EB1C154FEA74
:100F4000813141EA92414FEA823242EA90424FEACD
:100F500080304FEA0C7644F1000448EA03434EEA3D
:100F60000B484FF0000EB2EB080C71EB030724BFE7
:100F7000624639464EEB0E0E4FF0000B0018524100
:100F800049414BEB0B0BB2EB080C71EB03077BF108
:100F9000000B24BF624639464EEB0E0E4FF0000B9D
:100FA0000018524149414BEB0B0BB2EB080C71EBB3
:100FB00003077BF1000B24BF624639464EEB0E0E51
:100FC00051EA020718BF46F0010616EB0E7655F1FE
:100FD000000254F1000103D5BDE88901BDE8008895
:100FE000BDE88901BDE80048B619524141EB010155
:100FF000A3F10103704780807F7E7D7C7B7A7978C6
:10100000777676757473727171706F6E6E6D6C6CCD
:101010006B6A6A696868676666656464636362616F
:101020006160605F5F5E5E5D5D5C5C5B5B5A5A59F0
:10103000595858575756565555555454535352525C
:101040005251515050504F4F4F4E4E4D4D4D4C4CB4
:101050004C4B4B4B4A4A4A494949484848474747FD
:10106000474646464545454444444443434343423A
:10107000424242414141002B9C4630D477002BD064
:101080001CB54FEA370703B44FF010004FF01001C2
:10109000BAF1000F06D0BCF1000FDCBF40F0080031
:1010A00040F008014FF000000FBCBDE810400BF10C
:1010B000010BBBF1010F08BF5FEA170722BF12F156
:1010C000010211F101014FF0004143F1000300F072
:1010D000004043EA00007047F9D35708D0E746EADA
:1010E000064613F1400F4FEA16461FDD13F1200F9D
:1010F000DFBF16430A46002120335B42BED0C3F156
:10110000200746EA064602FA07F74FEA164646EA7D
:101110000706C3F1200722FA03F201FA07F721FAC2
:1011200003F14FF0000342EA0702A7E746EA02068E
:1011300046EA06464FEA164646EA0106BCBF46EABC
:101140000646360C4FF000034FF000024FF000014E
:1011500094E72DE9804C9A46934670B491E83800A4
:1011600007C831EA400C48BF34EA430C03D5FFF707
:10117000E6FDFFF780FFF0BCBDE8008C2DE9804C58
:101180009A46934670B491E8380007C810F0804F33
:1011900008BF13F0804F03D100F005F8FFF76BFF95
:1011A000F0BCBDE8008C20F07F4780EA030023F00C
:1011B0007F4C07EB0C03A3F57C5300F00040A3F138
:1011C000FE0392F0000F00F0B38095F0000F00F0E6
:1011D00077802DE901494FEA11404FEA144621EA90
:1011E000004800FB06FC24EA064708FB06F607FB5E
:1011F00008F800FB07F718EB06484CEB164C4FEAD3
:10120000124B18EB07484FEA15464CEB174022EA01
:101210000B4E0BFB06FC25EA06470EFB06F607FB0A
:101220000EFE0BFB07F71EEB064E4CEB164C4FF079
:1012300000061EEB074E4CEB174B18EB0B0840F16A
:10124000000018EB0E0B58EB000840F100008F1A5D
:101250004FF000013CBFC943661B14BFB5EB040C43
:1012600000213CBFC943F61B4FEA17444EEA8E0EDD
:1012700027EA04454FEA1C4704FB07622CEA074CA7
:1012800005FB07F70CFB05F604FB0CFC16EB074609
:1012900042EB174216EB0C4642EB1C421BEB0606D8
:1012A00058EB0202414146EA9E0601D5BDE801899C
:1012B000B619524141EB0101A3F10103BDE80189D7
:1012C0004FEA14454FEA114724EA054621EA074C44
:1012D00005FB07F406FB07F70CFB06F105FB0CFC0E
:1012E00011EB074144EB17444FEA124711EB0C4155
:1012F00044EB1C4422EA074C05FB07F206FB07F708
:101300000CFB06F605FB0CFC16EB074642EB1742FE
:1013100016EB0C4642EB1C456A1854F1000148BF1D
:101320007047B619524141EB0101A3F10103704727
:1013300095F0000F37D04FEA11424FEA144721EAE7
:10134000024624EA074C02FB07F106FB07F70CFBF9
:1013500006F402FB0CFC14EB074441EB17414FEA87
:10136000154714EB0C4441EB1C4125EA074C02FBEA
:1013700007F506FB07F70CFB06F602FB0CFC16EB69
:10138000074645EB174516EB0C4645EB1C42121978
:1013900051F1000148BF7047B619524141EB0101BC
:1013A000A3F1010370474FEA14454FEA114724EABD
:1013B000054621EA074C05FB07F106FB07F70CFB86
:1013C00006F24FF0000605FB0CFC12EB074241EB66
:1013D000174112EB0C4251EB1C4148BF7047921869
:1013E00041EB0101A3F101037047000070B5044611
:1013F00000688168C943C90717D1816821F00101DC
:10140000816000F07FFE05460AE000BF00F07AFE32
:10141000401B022804D920688068C043C00706D05A
:1014200020688068C043C007F0D0002070BDA06A6B
:1014300040F01000A062E06A40F00100E06201208C
:1014400070BD0000F8B5002604460096006881686B
:10145000C943C9072DD0816841F001018160164858
:1014600016490068B0FBF1F000E0401E0090002833
:10147000FBD100F047FE054616E000BF00F042FE3B
:10148000401B022810D920688068C043C0070BD0D9
:10149000A06A40F01000A062E06A40F00100E06243
:1014A00084F824600120F8BD20688068C043C0072C
:1014B000E4D10020F8BD00006C00002040420F0085
:1014C000FEE710B50022012100F087F8BDE81040CA
:1014D000052000F0F5BC10B5044602982160227189
:1014E0006371A0712820A0720620E0710C20207288
:1014F000142060720820E072322000F0E1FC00222B
:101500003321204600F069F800223321204600F004
:1015100064F8052000F0D4FC00223221204600F0BF
:101520005CF8052000F0CCFC00222021204600F0D1
:1015300054F8052000F0C4FCE1790022204600F0B8
:101540004CF8217A0022204600F047F8617A002208
:10155000204600F042F8A17A0022204600F03DF833
:1015600000220121204600F038F820460022BDE884
:101570001040022100F031B830B4447900238C428D
:1015800001D8641EE1B28479944201D8641EE2B2AB
:1015900032B1012A06D0022A06D0032A06D007E07B
:1015A0000B4605E0403102E0143100E05431CBB28B
:1015B00030BC43F08001002200F00FB8012200F09F
:1015C0000CB870B50C46054603E02846641CFFF7CE
:1015D000F5FF21780029F8D170BD7CB506460807D3
:1015E000040EF07A01F0F00518B145F0080544F05A
:1015F0000804012A01D02AB108E045F0010544F0B1
:10160000010403E025F0010524F0010445F0040085
:101610008DF80400012000F053FC8DF8055044F0D3
:1016200004008DF80600012000F04AFC4FF47A70A7
:101630008DF8074000903179042301AA306800F04A
:101640002BFE7CBD01F056BD10B5036800225A6226
:101650004FF47A7303E00268546A9C42FCD3491E3B
:1016600089B2F8D210BD036800225A620068426A4B
:101670008A42FCD370470068FFF7E6BF0068FFF7B7
:10168000F2BF30B482608380016030BC0846FFF74F
:10169000D9BF2DE9F0410746002500F057F8002496
:1016A0000126384600F061F80021384600F0C0F805
:1016B00001213846FFF7E2FF384600F047F8384688
:1016C00000F00FF818B106FA04F02843C5B2322131
:1016D0003846FFF7D3FF641C082CE2DB2846BDE840
:1016E000F0818188806800F0FBBC70B5044600F092
:1016F0004DF801212046FFF7BEFFCC21204600F027
:1017000066F84421204600F062F8C8212046FFF721
:10171000B2FF204600F03AF801212046FFF7ABFF68
:10172000CC21204600F053F8BE21204600F04FF8AF
:101730002046FFF7AEFF05462046FFF7AAFF45EA21
:101740000020000903F074FBE06070BD1FB50021AC
:1017500000910191029103918188009101210291F0
:101760008068694600F0CCFB1FBD1FB500210091C9
:10177000019102910391818800910121019102213F
:1017800003918068694600F0BBFB1FBD70B505463C
:101790000024FFF7EAFF0021284600F049F84FF443
:1017A000F0712846FFF76AFF2846FFF7CFFF502168
:1017B0002846FFF763FF2846FFF793FF00B901248F
:1017C0004FF4C8712846FFF759FF204670BD2DE938
:1017D000F0410E460746FFF7C8FF0024012505FA31
:1017E00004F03042384611D0FFF7BFFF00213846E1
:1017F00000F01EF801213846FFF740FF3846FFF79A
:10180000A5FF32213846FFF739FF0CE0FFF7ADFFA7
:101810000021384600F00CF832213846FFF72EFF41
:101820003846FFF793FF641C082CD8DBBDE8F08135
:1018300083880A468068194600F05FBC10B586B000
:1018400004464FF0FF32072103A88DE80700164831
:1018500001230022D021006800F0B4FD9DF80C00A7
:1018600002F014FE20709DF80D0002F00FFE607073
:101870009DF80E0002F00AFEA0709DF80F0002F025
:1018800005FEE0709DF8100002F000FE20719DF84A
:10189000110002F0FBFD60719DF8120002F0F6FDF0
:1018A000A07106B010BD00000000002001490860D2
:1018B00000F06AB800000020F0B5044687B040B2DE
:1018C00002F0ECFD00F07F008DF80C0044F30720DF
:1018D00002F0E4FD00F07F008DF80D0044F30740B6
:1018E00002F0DCFD00F07F008DF80E008020254D19
:1018F0008DF80F0003AE04274FF47A740096CDE9FB
:10190000017401230722D021286800F089FE0028F5
:10191000F4D1012604AF0097CDE9016433460E22CD
:10192000D021286800F04EFD9DF8100040F0050021
:101930008DF810000097CDE9016401230E22D0211B
:10194000286800F06DFE0028F4D105AF0097CDE9BE
:10195000016401230F22D021286800F033FD9DF897
:10196000140020F001008DF814000097CDE9016407
:1019700001230F22D021286800F052FE0028F4D164
:1019800007B0F0BD0000002070B586B000208DF8D3
:101990000C008DF81000012503A8144ECDE90005B8
:1019A0004FF47A7402942B460F22D021306800F055
:1019B00009FD9DF80C00400716D404A8CDE90005E8
:1019C000029401230E22D021306800F0FBFC9DF828
:1019D0001000029440F02000CDE9000501230E2202
:1019E000D021306800F01CFE06B070BD0000002061
:1019F0007047022000F078BA082000F075BA102075
:101A000000F072BA10B5202000F06EFABDE8104068
:101A10004FF4807000F068BAF8B50024009490F894
:101A200024202546012A12D0012280F824204A6869
:101A30001F23072A0DD20668776B521E02EB820223
:101A400093409F430B6893401F43776319E0022044
:101A5000F8BD06680D2A0AD2376BD21F02EB82024C
:101A600093409F430B6893401F43376309E0F76A35
:101A70000D3A02EB820293409F430B6893401F4351
:101A8000F7620A68072306680A2A0AD3F7680A3A3F
:101A900002EB420293409F438B6893401F43F760E1
:101AA00008E0376902EB420293409F438B68934002
:101AB0001F4337610A68102A01D0112A20D1124B26
:101AC00002689A4217D193681B0219D4936843F4B1
:101AD000000393600968102912D10C490C4A096867
:101AE000B1FBF2F101EB8101490000E0491E0091D8
:101AF0000029FBD104E0816A41F0200181620124C8
:101B000080F824502046F8BD002401406C000020DD
:101B100040420F000068C06C704700002DE9F041A2
:101B20004FF0000704003D467ED0A06A002628B989
:101B3000E66284F82460204600F07EF82046FFF735
:101B400055FCA16AC90600D420B1A06A40F010007B
:101B5000A06269E0A16A21F4885141F00201A1620A
:101B60006268E169237B0A4347EA43010A43A168AB
:101B70004FF48077B94209D0012907D05FF0000106
:101B800094F814C0BCF1010F02D00AE03946F7E71F
:101B9000F3B1A36A43F02003A362E36A43F00103B5
:101BA000E3622368D3F804C02CF4694C4CEA010CBE
:101BB000C3F804C021688B68DFF870C003EA0C0327
:101BC00013438B60A168B9420BD0012909D00CE006
:101BD000DFF85CC0A3690CEB43330B4343F40061B3
:101BE000DFE7218A0D05A5F580152168CB6A23F46E
:101BF00070032B43CB62216889680E4B19409142D8
:101C000008D1E662A16A21F0020141F00101A1625E
:101C1000BDE8F081A06A20F0020040F01000A06250
:101C2000E06A40F00100E0620120F1E7FDF7E1FF2A
:101C300000E0FFFFFE0E1FFF00B585B00021009100
:101C400001910291039100680E49884218D10E4813
:101C5000816941F400718161816901F4007104912D
:101C6000816941F0040181618069694600F00400E6
:101C700004900220009003200190044800F040F9F5
:101C800005B000BD002401400010024000080140E2
:101C90002DE9F84300270D460446009700F032FA7C
:101CA000804620688168C90508D5A06A40F02000F8
:101CB000A06284F824700120BDE8F8834168C9055A
:101CC00003D4C06A10F4700F2AD0022000F024FE62
:101CD0003B490968B1FBF0F62068036939490B42BA
:101CE0004FEA61014FEAA1121FD1C3684FEA611C9C
:101CF00013EA0C0F19D103690B4225D1C0681042B9
:101D000022D1142023E0681C0AD02DB100F0FAF98A
:101D1000A0EB0800A84203D920680068800725D5F9
:101D2000206800688007EED52DE003690B4202D1E0
:101D3000C168114206D0026923490A4206D1C0682F
:101D4000084203D1542002E0292000E0FC20464351
:101D5000009816E0681C11D02DB100F0D3F9A0EB6B
:101D60000800A8420AD90098B04207D2A06A40F001
:101D70000400A06284F8247003209DE70098401CB2
:101D80000090B042E6D321686FF012000860A06AAC
:101D900040F40070A06220688068C0F342400728C9
:101DA0000CD1207B50B9A06A20F48070A062A06A98
:101DB000C00403D4A06A40F00100A06200207BE7C9
:101DC0006C000020244992244992240070B50446F6
:101DD00090F8240001280DD0012084F8240020462A
:101DE000FFF730FB02004FF0000005D084F824001C
:101DF000104670BD022070BDA16A40F201239943D4
:101E000041F48071A1621F4D23681F49AB4218D174
:101E10000E6816F4702F14D0A66A46F48016A662D7
:101E20000E68760505D5A66A26F4005646F4805657
:101E3000A662A66AF6040AD5E66A26F00606E662F7
:101E400006E0A66A26F48016A6625E68E9E7E0620C
:101E500084F824006FF00200186020688368C3F3E0
:101E60004243072B05D1A84208D1096811F4702F0D
:101E700004D0816841F480118160B9E7816841F440
:101E8000A001F9E7002801400424014010B50446F0
:101E900090F82400012807D0012084F8240020466F
:101EA000FFF7A4FA10B107E0022010BDA16A21F4E7
:101EB000885141F00101A162002184F8241010BD75
:101EC00070B5044600F01EF90546601C02D00448B7
:101ED0000078044400F016F9401BA042FAD370BD0C
:101EE0006000002002F006BB044910B50A680242F7
:101EF00002D00860FFF7F6FF10BD00001404014097
:101F00002DE9F84FDFF8B8910024A9F1040B23461E
:101F10000F2709F1040AABF1040EC9E00125A54021
:101F20002A40AA427DD1674ED1F804C0ACEB060826
:101F3000B44532D014DCBCF1030F3AD009DCBCF15B
:101F4000000F2AD0BCF1010F1CD0BCF1020F31D11F
:101F50001DE0BCF1110F17D0BCF1120F2AD119E00E
:101F6000B8F5881F19D006DCB8F5803F15D0B8F554
:101F7000801F1FD111E0B8F5001F0ED0B8F5041F67
:101F800018D10AE0CB6815E0CB681B1D12E0CB68C6
:101F900008330FE0CB680C330CE08B682BB1012BBE
:101FA0004FF0080303D0456104E0042302E005611B
:101FB00000E00023FF2A01D8064601E000F10406F4
:101FC0004FEA840501D9A5F12005D6F8008007FA6B
:101FD00005FC28EA0C0803FA05F548EA0508C6F8E6
:101FE00000804D68ED0062D5374DAE6946F00106C0
:101FF000AE61AD6924F0030605F001050095334D8F
:1020000006EB050CDCF80850A607360F07FA06F8B1
:1020100025EA0805DFF8B880404503D14FF00008F5
:1020200017E044E0DFF8AC80404502D14FF00108F2
:102030000FE0DFF8A480404502D14FF0020808E02D
:10204000DFF89880404502D14FF0030801E04FF0DF
:10205000040808FA06F848EA0508CCF808804D6834
:10206000D9F80060ED024D4601D5164300E09643D5
:102070002E604D68DAF80060AD02554601D5164372
:1020800000E096432E604D68DBF80060AD035D46CE
:1020900001D5164300E096432E604D68DEF80060DF
:1020A000ED03754601D5164300E096432E60641C8F
:1020B0000D682A46E5407FF431AFBDE8F88F000097
:1020C000080401400000111000100240000001400F
:1020D00000080140000C01400010014000140140C4
:1020E0008068084000D001207047C26821EA0203DE
:1020F0000A4043EA0241016170470AB10161704739
:102100000904FBE701488068704700006000002078
:1021100070B5040025D094F83D00002520B984F85E
:102120003C50204600F014FB242084F83D00206839
:10213000016821F0010101602068016841F400415B
:1021400001602068016821F40041016000F042FD57
:102150004D4A6168914201D84C4900E04C4988429F
:1021600001D2012070BD4B492368B0FBF1F15E68DC
:1021700026F03F060E435E606368934206D94FF433
:10218000967359434FF47A73B1FBF3F12368491CFA
:102190001E6A26F03F06314319626168914210D8E9
:1021A0004900401EB0FBF1F2521CC2F30B02042A9C
:1021B00001D2042022E0B0FBF1F0401CC0F30B0080
:1021C0001CE0A268F2B301EBC10303EB0116431E4E
:1021D000B3FBF6F35B1C43F480431B0549D092B379
:1021E00001EBC10202EB0111401EB0FBF1F0401CFB
:1021F000C0F30B0040F4804040F400402168CA69FD
:102200004CF6FF739A431043C861D4E907100143A9
:102210002068026822F0C00211430160D4E9030182
:1022200001432068826848F2FF339A43114381607A
:10223000D4E9050108432168CA6822F0FF0210436F
:10224000C86001E00EE016E02068016841F001017D
:1022500001602564202084F83D00256384F83E5009
:10226000002070BD01EB4106431EB3FBF6F35B1C7F
:10227000B3E70120C2E701EB4101401EB0FBF1F0E2
:10228000401CC0F30B00B7E7A086010080841E004D
:1022900000093D0040420F002DE9F84F1F469046CF
:1022A0008A460446DDF82890FFF72CFF054694F88F
:1022B0003D0020287FD11923012240492046009566
:1022C00001F0D8FA002876D194F83C00012872D0A9
:1022D000012084F83C0020680168C90703D1016827
:1022E00041F0010101602068016821F40061016092
:1022F000212084F83D00102084F83E00002626644A
:10230000C4F824806785608D20852D48E0622B46C7
:102310004A465146204601F061F990B9206841696A
:102320008069009036E02A464946204601F080FB4D
:1023300050B1206C042804D12068016841F4007178
:1023400001600120BDE8F88F606A216800780861AB
:10235000606A401C6062618D491E6185218D491E45
:1023600089B2218522685369DB435B070BD451B1E5
:1023700000781061606A401C6062608D401E60855C
:10238000208D401E20852A464946204601F046FA07
:102390000028CED1208D0028C5D154F83D0B01680E
:1023A00041F400710160202004F81E09E677667789
:1023B0000020C7E7FFE70220C4E70000020010008A
:1023C0000000FFFF2DE9FF4F83B00025DDE9107904
:1023D0009A4693460446DDF848800095FFF792FE42
:1023E000064694F83D0020287CD119230122884913
:1023F0002046009601F03EFA0028F5D194F83C0002
:1024000001286FD0012084F83C0020680168C907CA
:1024100003D1016841F0010101602068016821F4E5
:1024200000610160222084F83D00402084F83E00D5
:1024300025646762A4F82A90608D20857548E06263
:10244000CDE9008653465A462046049901F014F916
:1024500000287CD1208DDFF8C091202768B10128A9
:1024600014D00228206801681ED041F48061016008
:102470002068416980690090BCE0206841698169F9
:102480000091016841F400710160B3E020680168C7
:1024900021F48061016072B6206841698169009110
:1024A000016841F400710AE041F40061016072B614
:1024B0002068416981690091016821F480610160AF
:1024C00062B697E0032865D801280CD0022843465D
:1024D0004FF000024946204600960BD001F0CAF9A1
:1024E000A8BB0CE091E032464146204601F068FA74
:1024F00068BB72E001F0BEF948BB72B633E02068F9
:10250000016821F48061016072B620680069616A27
:102510000870606A401C6062208D401E2085608DBE
:10252000401E60853D4846F2A8110068B0FBF1F0FE
:10253000C0EBC00000EB80000090401E009007D070
:1025400020684069C04340070DD50098F5E727E0B3
:1025500044F8305F6773A573206940F02000206164
:1025600062B625731CE02068016841F400710160C7
:1025700020680069616A0870606A401C6062218D91
:10258000491E2185618D491E618562B621680969F0
:10259000017026E032464146204601F011FA18B19A
:1025A000012007B0BDE8F08F20680069616A0870FB
:1025B000606A401C6062208D401E81B22185608D62
:1025C000401E608520684269D243520712D4032915
:1025D00003D1016821F48061016020680069616AAB
:1025E0000870606A401C6062208D401E2085608DEE
:1025F000401E6085208D00287FF464AF84F83D7014
:1026000084F83E5084F83C50CBE70220C9E7000034
:10261000020010000000FFFF040001006C00002019
:102620002DE9FF4F83B09A46DDE9119793460446A2
:10263000DDF84080FFF766FD054694F83D00202850
:102640007FD11923012240492046009501F012F95B
:10265000002876D194F83C00012872D0012084F83B
:102660003C0020680168C90703D1016841F00101FD
:1026700001602068016821F400610160212084F874
:102680003D00402084F83E0000262664C4F82480E3
:10269000A4F82A90608D20852C48E062CDE9007571
:1026A00053465A462046049901F064F870B930E068
:1026B0002A463946204601F0BBF958B1206C04285F
:1026C00004D12068016841F400710160012007B065
:1026D000BDE8F08F606A216800780861606A401C7C
:1026E0006062218D491E89B22185628D521E6285EC
:1026F00022685369DB435B070BD469B10078106132
:10270000606A401C6062208D401E2085608D401EE6
:102710006085208D0028CBD12A463946204601F01D
:102720007DF80028CAD154F83D0B016841F40071CE
:102730000160202004F81E09E67766770020C6E7CE
:10274000FFE70220C3E70000020010000000FFFFC7
:1027500030B585B0002100910191029103911E4D89
:1027600003681E4C122103221D48AB4216D1A369F7
:1027700043F00803A361A369039203F008030493E1
:10278000C023CDE900316946FFF7BAFBE06940F4A8
:102790000010E061E06900F4001019E0114DAB4257
:1027A00017D1A36943F00803A361A369039203F05F
:1027B000080304934FF44063CDE900316946FFF705
:1027C0009FFBE06940F48000E061E06900F4800074
:1027D000049005B030BD00000054004000100240DD
:1027E000000C014000580040024881680278114402
:1027F0008160704760000020074810B5016841F013
:1028000010010160032000F075F80F2000F006F8B9
:1028100000F024F8002010BD0020024070B50D4DDE
:1028200004464FF47A712878B1FBF0F00A49096840
:10283000B1FBF0F000F0B8FB48B9102C07D2002231
:102840002146501E00F036F800206C6070BD01205B
:1028500070BD0000600000206C0000200C4808B52E
:10286000816941F001018161816901F001010091FB
:10287000C16941F08051C161C06900F08050009091
:102880000448416821F0E06141F00071416008BDF9
:102890000010024000000140002809DB00F01F0288
:1028A000012191404009800000F1E020C0F80011B2
:1028B00070470000F0B40E4B1B680C46C3F30223B4
:1028C000C3F10705042D00D90425191D072901D2DC
:1028D000002300E0DB1E012606FA05F1491E214017
:1028E00099409E40761E16403143F0BC01F0B7BDC2
:1028F0000CED00E0064900F0070208684FF6FF0300
:10290000184040EA0220034A104308607047000064
:102910000CED00E00000FA0510B501460020234C44
:10292000012922D0022939D010291DD161682268DD
:10293000D20119D51E48C1F38342C903805C0AD570
:1029400061681B4AC1F34041921E515C194AB2FBB7
:10295000F1F1484301E0184948436168490203D452
:1029600040000321B0FBF1F010BD226AC2F3012147
:10297000012903D1920701D5C80310BD022905D151
:10298000626A920702D549F6404010BD0329FCD186
:1029900021688903F9D54FF2244010BD00F02AF9CF
:1029A0006168C1F38131491C4900DBE70010024036
:1029B000E251000800127A0000093D002DE9F843B9
:1029C00005460078354CC00754D0E0690026C000A9
:1029D00008D4E06940F08050E061E069012600F031
:1029E000805000902E480168C90512D401688046C5
:1029F00041F480710160FFF785FB074605E000BFE9
:102A0000FFF780FBC01B642823D8D8F80000C0055E
:102A1000F6D5206A10F4407021D0A98801F44071E5
:102A200081421CD0206A1F49012220F440700A60B4
:102A300000220A602062C00711D0FFF763FB07463F
:102A400041F2883808E000BFFFF75CFBC11B41453D
:102A500002D90320BDE8F883206A8007F4D5206AF4
:102A6000696820F44070084320621EB1E06920F0DC
:102A70008050E0612878800705D56068A96820F457
:102A80004040084360602878C00605D56068E96862
:102A900020F48000084360600020DBE70010024063
:102AA00000700040400442422DE9F0470F46050007
:102AB00061D0434E306800F00700B84209D2306858
:102AC00020F0070038433060306800F00700B8425B
:102AD00051D128683B4C810712D5400703D5606867
:102AE00040F4E06060602878000703D5606840F437
:102AF000605060606068A96820F0F0000843606082
:102B00002878C00728D06868012810D021680228DA
:102B100010D0890700292EDA616821F003010143F2
:102B20006160FFF7EFFA804641F288390DE02168D5
:102B30008903EFE78901EDE7FFF7E4FAA0EB08016D
:102B4000494502D90320BDE8F0876068696800F054
:102B50000C00B0EB810FEFD1306800F00700B842F5
:102B60000BD9306820F0070038433060306800F03F
:102B70000700B84201D00120E5E72878400705D5D5
:102B80006068E96820F4E060084360602878000726
:102B900006D56068296920F4605040EAC100606091
:102BA00000F038F86168084AC1F30311515CC8406D
:102BB0000649086006480068FFF730FE0020C2E7BB
:102BC0000020024000100240F25100086C0000207A
:102BD000640000200448054900684968044AC1F3BC
:102BE0000221515CC84070476C0000200010024078
:102BF000025200080448054900684968044AC1F3C4
:102C0000C221515CC84070476C0000200010024097
:102C1000025200080E4A51680E4801F00C03042BC2
:102C200011D0082B0FD10C48C1F38343C903C05CFA
:102C30000AD55168084AC1F34041921E515C054AC9
:102C40005043B0FBF1F0704704494843704700001F
:102C50000010024000127A00D051000800093D0027
:102C60002DE9F84F040070D02078C04DC00749D03E
:102C70006868C0F38100012807D06868C0F381004C
:102C8000022809D16868C00306D52868800339D5B1
:102C900060680028E7D035E06068B0F5803F0BD071
:102CA00010B1B0F5A02F11D0286820F48030286032
:102CB000286820F4802002E0286840F480302860F2
:102CC000606890B1FFF71EFA06460AE0286840F4F3
:102CD00080202860F0E700BFFFF714FA801B64280B
:102CE00073D828688003F7D50CE0FFF70BFA064687
:102CF00005E000BFFFF706FA801B6428F0D82868BB
:102D00008003F7D420789A4E80074FF001094FF0E6
:102D1000000839D5686810F00C0F07D06868C0F358
:102D20008100022809D16868C00306D4286880079A
:102D300014D52069012808D110E02069B0B1C6F887
:102D40000090FFF7DFF9074605E00AE1FFF7DAF93F
:102D5000C01B0228C4D828688007F7D52868616995
:102D600020F0F80040EAC10028600DE0C6F80080BD
:102D7000FFF7C8F9074604E0FFF7C4F9C01B0228B3
:102D800023D828688007F7D4207800072CD5794805
:102D9000A169D9B1C0F80090FFF7B4F9074604E083
:102DA000FFF7B0F9C01B02280FD8686A8007F7D573
:102DB00071484FF4FA510068B0FBF1F0009000BF89
:102DC0000098411E0091FAD20EE080E0C0F8008029
:102DD000FFF798F9074604E0FFF794F9C01B0228B3
:102DE00075D8686A8007F7D42078400760D5E8690D
:102DF0000027C00008D4E86940F08050E861E86925
:102E0000012700F0805000905C480168C90513D488
:102E10000168834641F480710160FFF773F98246CF
:102E200006E000BFFFF76EF9A0EB0A0064284ED859
:102E3000DBF80000C005F5D5E06801280AD008B12C
:102E4000052813D0286A20F001002862286A20F0A3
:102E5000040002E0286A40F001002862E06841F2C4
:102E6000883B98B1FFF74EF982460BE0286A40F0A4
:102E700004002862EEE700BFFFF744F9A0EB0A0167
:102E800059455AD8286A8007F6D50CE0FFF73AF979
:102E9000824605E0FFF736F9A0EB0A0159454CD808
:102EA000286A8007F6D41FB1E86920F08050E861F5
:102EB000E06988B36968C1F38101022944D002281E
:102EC000C6F8608004D0FFF71DF9044638E034E00E
:102ED000FFF718F9074604E0FFF714F9C01B0228B2
:102EE0002BD828688001F7D4206AB0F5803F05D13F
:102EF0006868A16820F4003008436860D4E90801DC
:102F00000843696821F4741108436860C6F860904A
:102F1000FFF7F8F8044606E025E000BFFFF7F2F8F7
:102F2000001B022809D828688001F7D51BE000BFE4
:102F3000FFF7E8F8001B022802D90320BDE8F88F4C
:102F400028688001F4D40EE00128F7D06868226A6E
:102F500000F48031914204D1616A00F4701088421B
:102F600001D00120EAE70020E8E70000001002405D
:102F700000004242800442426C0000200070004089
:102F8000084800F13802C169B1F5FA6F03D3032193
:102F90009173002103E0927B022A01D1491CC16197
:102FA000704700001000002010B5401EB0F1807F77
:102FB00001D3012010BD4FF0E02460610F216017A4
:102FC00001F04DFA0020A06107202061002010BD13
:102FD00010B5FFF7D5FF10BD70B590F83C20012A61
:102FE00026D0012480F83C40022280F83D2003686E
:102FF0005A689D6822F070060A6832435A600D4B89
:1030000002689A4208D0B2F1804F05D00A4B9A422A
:1030100002D00A4B9A4204D1496825F08003194333
:10302000916080F83D40002180F83C10084670BD5A
:10303000022070BD002C0140000400400008004048
:1030400010B5040003D094F83D0010B107E0012052
:1030500010BD002084F83C00204600F01FF802203C
:1030600084F83D00211D206801F066F8012084F8F5
:10307000460084F83E0084F83F0084F8400084F85D
:10308000410084F8420084F8430084F8440084F846
:10309000450084F83D00002010BD000008B5124A2C
:1030A00001681248914207D1816941F40061816150
:1030B000806900F4006014E0B1F1804F0AD00C4A3E
:1030C00091420FD1C16941F00401C161C06900F0B2
:1030D000040006E0C16941F00101C161C06900F06E
:1030E0000100009008BD0000002C014000100240CB
:1030F0000008004090F83D10012901D001207047E0
:10310000022180F83D1000680B49884208D0B0F1D8
:10311000804F05D00949884202D00949884204D12C
:10312000816801F00701062903D0016841F001011F
:103130000160002070470000002C014000040040A6
:103140000008004070B5044690F83C0000250128B6
:1031500017D0012684F83C60022084F83D002068E6
:10316000826822F0770222F47F4282600868502849
:1031700038D00DDC20284FD005DC90B3102811D1B9
:103180004AE0022070BD302846D040280AD13BE0FA
:1031900060282FD070280DD0B0F5805F03D0B0F537
:1031A000005F12D0012584F83D60002084F83C00C7
:1031B000284670BDCB68D1E90121206801F005F8EF
:1031C0002068816841F0770109E0CB68D1E90121ED
:1031D000206800F0FAFF2068816841F48041816036
:1031E000E1E719E0CA684968206801F0A3F85021B6
:1031F000206806E0CA684968206801F0ACF86021E0
:10320000206800F0ECFFCEE7CA684968206801F04A
:1032100091F840212068F4E7226801461046F0E763
:1032200000B585B0002100910191029103910068E1
:103230000B49884212D10B48816941F00801816134
:103240008069694600F0080004904FF40070009017
:103250000220019003900448FEF752FE05B000BD25
:103260000008004000100240000C014070B5044608
:1032700090F83C0000260D4601280FD0012084F86C
:103280003C006AB1042A1DD0082A2FD00C2A3FD056
:103290000126002084F83C00304670BD022070BD3D
:1032A000206800F0A5FF2068816941F00801816174
:1032B0002068816921F004018161206881692A699F
:1032C000114311E0206800F0BBFF2068816941F4E0
:1032D000006181612068816921F4806181612068D9
:1032E00081692A6941EA02218161D2E7206800F000
:1032F000D3FF2068C16941F00801C1612068C1693C
:1033000021F00401C1612068C1692A69114311E0FB
:10331000206800F0EDFF2068C16941F40061C161DF
:103320002068C16921F48061C1612068C1692A698E
:1033300041EA0221C161ACE710B5040003D094F862
:103340003D0010B107E0012010BD002084F83C00D2
:10335000204600F01EF8022084F83D00211D206860
:1033600000F0EAFE012084F8460084F83E0084F86C
:103370003F0084F8400084F8410084F8420084F85B
:10338000430084F8440084F8450084F83D000020A0
:1033900010BD704710B50446022249B104290ED071
:1033A000082913D094F84100012816D0012010BD3F
:1033B00094F83E000128F9D184F83E200FE094F8FB
:1033C0003F000128F2D184F83F2008E094F8400043
:1033D0000128EBD184F8402001E084F8412001224B
:1033E000206800F0E5FE0F492068884203D1426C56
:1033F00042F4004242642068884208D0B0F1804F15
:1034000005D00949884202D00849884204D1816820
:1034100001F00701062903D0016841F001010160B4
:10342000002010BD002C01400004004000080040B6
:1034300070B5040004D094F84100002510B106E0F6
:10344000012070BD84F84050204600F023F824206D
:1034500084F841002068C16821F40051C160204611
:1034600000F08CFF2068016921F49041016120681F
:10347000416921F02A0141612068C16841F400518D
:10348000C1606564202084F8410084F842006563CF
:10349000002070BD30B585B00024009401940294E2
:1034A000039400681449884224D11448816941F486
:1034B00080418161816901F480410491816941F019
:1034C0000401816180690E4D00F0040004904FF406
:1034D0000070009002200190032003906946284666
:1034E000FEF70EFD2815CDE9000469462846029432
:1034F000FEF706FD05B030BD003801400010024067
:103500000008014070B5244E012220213046FEF70C
:10351000F4FD224D0020296848622868416A0A2982
:10352000FCD3002220213046FEF7E7FDFEF7EAFD3E
:103530001B4CA06210213046FEF7D2FD28B9FEF7E1
:10354000E1FDA16A401A1428F4D32868406A60603B
:10355000FEF7D8FDA06210213046FEF7C1FD28B16C
:10356000FEF7D0FDA16A401A3228F4D32868406AD9
:10357000A0606168401A01F05BFC01F009FB094A98
:10358000094B01F007FA4FF0FF3201F0DAFD01F0CC
:10359000C7F9E06070BD0000000801409001002004
:1035A000100000209CC420B07268A13FFEE70168B3
:1035B0004A69D24352050FD46FF480624A610021F8
:1035C00040F8301F202242738173026942F00402E6
:1035D000026101730120704700207047F8B504466E
:1035E000C06A1E460D461746082807D0012805D098
:1035F00010F5803F02D0206B122804D120680168AA
:1036000041F480710160134600224FF00111204601
:10361000009600F02FF940B120680068C00502D57F
:103620004FF4007020640320F8BD2069B0F5804F8E
:103630000ED00620216800EAD51040F0F0000861A5
:1036400033463A460B49204600F05CF978B902E06F
:1036500005F0FE0000E0E8B2216808610549334644
:103660003A46891F204600F04DF90028DCD00120A1
:10367000F8BD0000080001002DE9F84F044600687D
:1036800089460B9D01689846174641F480610160A8
:103690002068016841F48071016000954FF0011BC2
:1036A0000022594620460A9B00F0E4F84FF4007AC5
:1036B00040B120680068C00501D5C4F840A00320CF
:1036C000BDE8F88F216809F0FE0008612B46284903
:1036D00020460A9A00F016F9F0BB2068416980691B
:1036E00000902A4620460A9900F0A2F940B1206CC9
:1036F00004283AD12068016841F40071016034E087
:10370000FEB2B8F1010F09D02168380A08612A46D3
:1037100020460A9900F08CF90028E8D1206806615B
:103720002A4620460A9900F083F90028DFD1206854
:10373000016841F4807101600095002259462046DD
:103740000A9B00F097F80028B3D1216809F0FF0028
:1037500040F00100086100E007E02B4604492046E4
:103760000A9A00F0CFF80028AAD00120A8E70000AC
:10377000020001002DE9F843044600680D46DDE92A
:10378000089701689846164641F4807101604B46DF
:1037900000224FF001112046009700F06BF848B16D
:1037A00020680068C00502D54FF400702064032033
:1037B000BDE8F883216805F0FE0008613B464A46F3
:1037C0001549204600F09EF888B920684169806953
:1037D00000903A464946204600F02AF948B1206C4C
:1037E000042804D12068016841F4007101600120BF
:1037F000DEE7F5B2B8F1010F09D02168300A08619F
:103800003A464946204600F013F90028E7D12068DF
:1038100005610020CCE700000200010070B51646EB
:103820000D4604461EE02046FFF7C1FE08B1012008
:1038300070BD681C16D0FEF765FC801BA84200D83E
:1038400085B920684069C04340070BD5002044F883
:10385000300F20216173A073216941F020012161A3
:103860002073E4E720684069C0434007DBD40020B0
:1038700070BD00002DE9F047984617460D460446F6
:10388000C1F30746DDF820902AE000BFB8F1FF3F02
:1038900026D0FEF737FCA0EB0901414502D8B8F16C
:1038A000000F1DD12068012E16D0806925EA000086
:1038B0000004000C12D00020B84211D1002044F8BE
:1038C000300F20216173A073216941F02001216133
:1038D00020730120BDE8F0874069E7E70120EBE7AE
:1038E0002068012E0AD0806925EA00000004000C3F
:1038F00006D00020B842C9D00020EBE74069F3E7CA
:103900000120F7E72DE9F047984616460D46044694
:103910004FF000094FF0200AC1F3074723E0206869
:103920004069C043400515D42068016841F4007126
:10393000016021686FF480604861C4F8309084F8B9
:103940003DA084F83E90216C41F00401216484F88C
:103950003C9021E0701C06D0FEF7D4FBA0EB0800E1
:10396000B04203D816B1012F1FD021E02068012FEB
:1039700015D0806925EA00000004000C18D000BFB3
:1039800044F8309F84F80DA084F80E90216941F02E
:103990002001216184F80C900120BDE8F087406986
:1039A00025EA00000004000CEAD12068406901E02B
:1039B0002068806925EA00000004000CAFD1ECE724
:1039C0002DE9F041002590460E460446202728E0C8
:1039D0004069C043C0060CD454F8301B6FF010008F
:1039E000486144F810596777A577206A20622577E7
:1039F00014E0FEF787FBA0EB0800B04200D886B9C0
:103A000020684069C04340060BD544F8305F6773B7
:103A1000A573206940F02000206125730120BDE8D6
:103A2000F08120684169C9434906D1D40020F6E7F6
:103A300070B516460D4604461EE02046FFF7B7FD5A
:103A400008B1012070BD681C16D0FEF75BFB801B1F
:103A5000A84200D885B920684069C04300060BD54C
:103A6000002044F8300F20216173A073216941F0D8
:103A7000200121612073E4E720684069C04300060B
:103A8000DBD4002070BD00002DE9F0436B4C6C4985
:103A900087B0606A88420FDB002211466948FDF753
:103AA0006BFD69A16748FDF78CFD01220021654887
:103AB000FDF762FD69A1BDE02078DFF88081002577
:103AC0006B4E4FF4FA6742F2107908F13808062875
:103AD00072D2DFE800F08E0311356A7200221146BF
:103AE0005848FDF749FD63A117E025705548FDF7DB
:103AF000E8FC07B0BDE8F08398F91110009198F93F
:103B0000123098F9132060A101A8FCF76DFB002288
:103B100011464C48FDF730FD01A94A48FDF751FD1B
:103B2000012200214748FDF727FD5FA14548FDF729
:103B300048FDFEF7E7FA3168401AB842D5D2D8E717
:103B40003E48303090F90010009190F9013090F922
:103B500002205AA101A8FCF747FB00221146394870
:103B6000FDF70AFD01A93748FDF72BFD98F8101065
:103B7000012913D058A101A8FCF736FB012200212E
:103B80003048FDF7F9FC01A92E48FDF71AFDFEF7B4
:103B9000B9FA3168411A4945A7D2AAE798F9132022
:103BA00052A101A8FCF720FBE8E7002211462548B6
:103BB000FDF7E2FC53A1B0E71BE0E06800F0E8FF8E
:103BC00002460B4654A101A8FCF70EFB0022114649
:103BD0001C48FDF7D1FC01A91A48FDF7F2FCE06A88
:103BE00000F0D6FF02460B4650A101A8FCF7FCFAF4
:103BF000C4E7206A00F0CCFF02460B4651A101A8A1
:103C0000FCF7F2FA002211460E48FDF7B5FC01A9B7
:103C10000C48FDF7D6FC606A00F0BAFF02460B467E
:103C20004DA101A8FCF7E0FA012200210548FDF7AB
:103C3000A3FC01A90348FDF7C4FC5AE710000020CB
:103C400000007A4478020020202021215741524E62
:103C5000494E4721212020200000000054555242A7
:103C60004944495459204849474820200000000051
:103C70000400002046454544494E47202E2E2E2064
:103C800020202020000000005365743A20253032A7
:103C9000643A253032643A253032642020202020D6
:103CA0002020202000000000202020202020202094
:103CB00020202020202020200000000054696D6575
:103CC0003A20253032643A253032643A2530326465
:103CD00020202020000000004E6F207365742061BA
:103CE0006C61726D2020202000000000416C617228
:103CF0006D3A20253032643A30303A30302020207E
:103D00002020000054696D652773206265656E2070
:103D10007365742000000000446973743A20252EF6
:103D2000316620636D2020200000000052656D6127
:103D3000696E3A20252E306625252020202020205F
:103D40000000000054656D703A20252E3166204336
:103D50002020202020202000547572623A20252E39
:103D60003166204E545520202020202000000000E5
:103D70003EB5002410480094019402940D498460DB
:103D8000016004730475012505614FF460214460EE
:103D9000C161FDF7C3FE08B172B6FEE70095CDE93B
:103DA000015469460448FDF737FE002801D072B679
:103DB000FEE73EBD00240140700000202DE9F047E1
:103DC00086B000244A4800940194029403948169C7
:103DD00041F010018161816901F010010491816954
:103DE00041F020018161816901F020010491816924
:103DF00041F004018161816901F00401049181694C
:103E000041F0080181618069DFF8E88000F0080076
:103E10004FF400550490002229464046FEF76DF904
:103E2000DFF8D490002260214846FEF766F9DFF8FB
:103E3000CCA0AF00002239465046FEF75EF900954F
:103E4000022601250396CDE9015469464046FEF756
:103E500057F81020CDE90004694648460294FEF761
:103E60004FF86020CDE90005CDE902466946484695
:103E7000FEF746F80A2000902148CDE90105694681
:103E80005046FEF73DF800970396CDE90154694688
:103E90005046FEF735F84FF4987000901948CDE978
:103EA000010569465046FEF72BF80022114607200F
:103EB000FEF700FD0720FEF7EFFC00221146092067
:103EC000FEF7F8FC0920FEF7E7FC002211460A2065
:103ED000FEF7F0FC0A20FEF7DFFC00221146172057
:103EE000FEF7E8FC1720FEF7D7FC06B0BDE8F08728
:103EF000001002400010014000080140000C014089
:103F0000000021100000111010B586B000241748E1
:103F1000009401940294039404941349059401605D
:103F20004721C0E901144FF6FE71C0E90314446152
:103F30008461FFF785F808B172B6FEE74FF4805050
:103F4000009069460948FFF7FDF808B172B6FEE730
:103F5000049404A905480594FFF73EF8002801D011
:103F600072B6FEE706B010BD002C014048010020EB
:103F700010B586B00024164800940194029403946E
:103F800004944FF08041059401604721C0E9011479
:103F90004FF6FF71C0E903148461FFF751F808B1CF
:103FA00072B6FEE74FF48050009069460848FFF76C
:103FB000C9F808B172B6FEE7049404A90448059450
:103FC000FFF70AF8002801D072B6FEE706B010BD70
:103FD0009001002010B58EB0002407940894099435
:103FE0000A940B941C2168460C94FCF711FA1E48A5
:103FF0001C4901608F21C0E9011442F20F71C0E930
:1040000003148461FFF71CF808B172B6FEE74FF4A1
:104010008050079007A91448FFF794F808B172B6CA
:10402000FEE71148FFF788F908B172B6FEE70B9476
:104030000BA90D480C94FEF7CFFF08B172B6FEE74E
:104040006020CDE9000402940C22694606480494DD
:10405000FFF70CF908B172B6FEE70348FFF7E0F886
:104060000EB010BD00080040D8010020FEE7FEE7BA
:104070007047000070B5002506462C460FE00A4840
:10408000FDF7A4FE0A210848FDF702FE0648FDF7E9
:1040900041FD05440448FDF7F9FE641CE4B2B44256
:1040A000EDD3B5FBF6F070BD70000020704710B581
:1040B000FEF79AFBBDE81040FEF78ABF30B593B01B
:1040C00028216846FCF7A4F914210AA8FCF7A0F9F6
:1040D000002501200F9510951195010412958DE88A
:1040E000230004904FF4E010CDE908100224079457
:1040F0006846FEF7B5FD08B172B6FEE70AA90F20C3
:1041000081E831004FF48060CDE90D0502210AA855
:10411000FEF7CAFC08B172B6FEE74FF400401190FA
:104120000F940FA8FEF74AFC002801D072B6FEE7F4
:1041300013B030BD70470000F0B50268194B1A4C3F
:104140001A4D4FF08047984205D0B84203D0A042A4
:1041500001D0A84203D122F070064A683243984247
:1041600005D0B84203D0A04201D0A84203D122F426
:104170004074CA6822434C6922F0800222430260E4
:104180008A68C2620A688262984201D10969016341
:10419000012141610169C90703D0016921F00101D1
:1041A0000161F0BD002C0140000400400008004007
:1041B00010B501F01F030121046A99408C43046289
:1041C000016A9A401143016210BD10B5846842EA49
:1041D000032224F47F440A432243826010BD826894
:1041E00022F070020A4342F007018160704700002C
:1041F00030B5036A026A22F00102026242688469F1
:1042000024F073050C682C4323F002058B682B43C4
:104210000A4DA8420BD123F00805CB6822F4407266
:104220002B434D6923F0040315438A692A434260F6
:10423000846149684163036230BD0000002C014085
:1042400030B5026A036A23F010030362436884698D
:104250000D6824F4E64444EA05248D6822F0200227
:1042600042EA05120B4DA8420ED1CD6822F0800221
:1042700042EA05124D6923F4406343EA85038D69E0
:1042800022F0400243EA8503436084614968816308
:10429000026230BD002C014030B5036A026A22F48C
:1042A000807202624268C46923F4007324F07305CB
:1042B0000C682C438D6843EA05230C4DA8420ED1AF
:1042C000CD6823F4006343EA05234D6922F440528C
:1042D00042EA05128D6923F4806342EA05124260C6
:1042E000C4614968C163036230BD0000002C014015
:1042F00030B5046A026A22F4805202624268C369DD
:104300000D6823F4E64343EA05238D6824F4005442
:1043100044EA0534064DA84204D14D6922F4804296
:1043200042EA85124260C36149680164046230BD9B
:10433000002C014010B5036A046A24F001040462F1
:10434000846924F0F00444EA021423F00A020A43C8
:104350008461026210BD10B5036A046A24F010047F
:104360000462846923F0A00324F4704444EA023216
:1043700043EA01118261016210BD000070B504467C
:1043800000680169E26821F440511143016121692B
:10439000A0680843616908432168CA6841F20C6358
:1043A0009A430243CA6020684169A26921F44071BE
:1043B000114341611E492068884202D1FEF71AFC70
:1043C00001E0FEF707FC00EBC00101EB00126068A2
:1043D00064218000B2FBF0F3B3FBF1F36FF0180639
:1043E0007343B2FBF0F5B2FBF0F605EB8305322325
:1043F00003EB0515B5FBF1F5B6FBF1F605F0F0059D
:1044000005EB0615B2FBF0F6B2FBF0F0B0FBF1F0F5
:104410006FF01802504306EB800003EB0010B0FB76
:10442000F1F0216800F00F002844886070BD0000A2
:1044300000380140FEE7490050EAC12018BF0420BF
:104440004A0D18BF40F0010040F2FF72B2EB515F1D
:1044500008BF40F00200012808BF05207047090787
:10446000090E002804DB00F1E02080F800147047FA
:1044700000F00F0000F1E02080F8141D7047303884
:104480000A2801D2012070470020704700F00F0178
:10449000000900EB800001EB400070470A2190FB0F
:1044A000F1F201FB120290FBF1F002EB0010C0B23E
:1044B000704700001CB50E4CA068807B18B14FF40B
:1044C0007A7000F0FBF8A168C87B02280ED151F881
:1044D000110F00908A88ADF8042089798DF80610B4
:1044E0000199FDF7E9F9A1680020C8731CBD00001F
:1044F000040000202DE9FF470646FDF703FE3F4C70
:104500006168401AFA281AD3FDF7FCFD02213C4DE0
:104510004FF001086060B6F5807F12D00027022EB0
:104520001CD0202E4CD0102E55D0082E07D1287824
:10453000F0B303285ED02F70FDF7E4FD2060BDE8E6
:10454000FF87A068C27B22B1C17380F8108004206D
:1045500051E080F80E8085F80080EDE70DF10C0940
:10456000CDE900984FF47A760296A06801230F22D5
:104570000068D021FDF726FF9DF80C00CDF80090D3
:1045800020F001008DF80C00CDE90186A068012320
:104590000F220068D021FEF743F84FF4005119486C
:1045A000FDF7A3FDA06880F80E8085F8008000E08C
:1045B0001EE0FDF7A7FD2060A068C7730774BEE783
:1045C000A06880F80F80C27C521C52B2C274182AB4
:1045D0000CDBC7740AE0A06880F80F80C27C521E12
:1045E00052B2C274002A01DA1722C2742970A3E7FA
:1045F000032000E0052028709EE700000400002052
:10460000100000200010014070B5184C86B0A0606A
:104610000068FDF74BF9A06881684068FEF7BAFEB4
:10462000002000F025F8A0680021012601748DF813
:10463000101003A9CDE9001605228DF80C204FF4C7
:104640007A750295006833460E22D021FDF7E8FF07
:1046500004A8CDE900060295A06801230F22006896
:10466000D021FDF7DDFF06B070BD00000400002082
:1046700010B5B42801DDB42002E0002800DA0020E3
:1046800032214143092291FBF2F1A1F2E2414A4277
:1046900009498C68D4E90113096833B1042B06D0A9
:1046A000082B06D00A64A08110BD4A63FBE78A6329
:1046B000F9E7CA63F7E700000400002010B5094CD1
:1046C000A068807B012808D0032805D10020FFF7CF
:1046D000CFFF0020A168887310BDB420FFF7C8FF8A
:1046E0000220F7E7040000202DE9F0410A4D0746BB
:1046F000074E0848A96900F0AFFB0446314638462A
:1047000000F0AAFB214600F06FFAA861BDE8F08135
:10471000CDCC4C3D3333733F1000002008B5FEF77D
:104720006BF8FFF7CBFCFFF749FB62486049624E2C
:1047300000240160C0E901640D14C0E9034544612F
:104740008461C4610462FDF7E3FC08B172B6FEE760
:10475000FFF7DAFBFFF70CFB564858495438016065
:10476000C0E90164C0E9034544618461C461046235
:10477000FDF7CEFC08B172B6FEE7FFF72BFCFFF7A2
:10478000F7FB50484E4901604FF4E131C0E9011494
:104790000C21C460C0E904418461C461FEF748FE95
:1047A00008B172B6FEE702204249009010234E2263
:1047B00001F5C270FCF78FFE3E494FF400435431BF
:1047C000414A01F59070FCF75CFF4048FFF71CFF81
:1047D0003C489038FEF78EFC002220213C48FDF733
:1047E0008CFC3A4DDFF8ECB0DFF8EC90DFF8ECA091
:1047F000383D00BFFFF75EFE34480838FDF71EF86D
:1048000030484830FCF771FF2862C820FFF732FCBF
:1048100000F00EFB324900F01FFB324900F046FA6F
:10482000FFF762FF0646304900F016FB07463146A7
:10483000084600F011FB2D4900F00EFB394600F050
:10484000D7FB2B4900F0D0F94F466862B84201D33C
:104850006C6208E0584502DDC5F824B000E002DBD8
:104860004FF0010201E04FF000024FF04001184804
:10487000FDF743FCFEF746FED5E90401804600F053
:10488000B7FB06464046E96800F0B2FB314600F04F
:104890000DFA5646514600F0DFFAE862B84201D3FD
:1048A000EC6202E0B04200DDEE62FFF7EDF8A1E756
:1048B00000580040F4000020A08601000054004091
:1048C0000038014020020020000C01404800002078
:1048D0000008014000007A44000080800000C842C7
:1048E0003333534000F07F45A826A8439A1961C48A
:1048F000B8D4394510B500290AD00878002807D067
:1049000005487844FCF762F9002801D0002010BD6A
:104910000248784410BD0000CE090000C60900001E
:1049200021F00042A2F16052B2F5801F01F0004375
:1049300028BFD2F17F6C0BD95FEA001C43EAC202A8
:1049400042EB507018BF704728BF20F0010070473D
:10495000B2F5801FBCBF184670474FEA410C1CF5EA
:10496000001F02D2084600F03EBB70B500F0BCF854
:1049700000000089FFF7F6BF4FF00040A0F580006F
:104980007047000002494FF0000000F0A8BB00BFD4
:104990000000F87FDFF848C170B51CEA111E1EBF89
:1049A0001CEA13159EEA0C0F95EA0C0F00F06F80BD
:1049B00081EA030423EA4C134EEAD47E21EA4C1127
:1049C00041F4801143F48013AE44A1FB024CA0FBE0
:1049D0000365AEF17F7E361955EB0C05A1FB034C48
:1049E0004CF10003A0FB021C16EB0C06654153F1D1
:1049F0000003094218BF46F0010613F4007F0BD1F3
:104A00004FEA03314FEA0530340341EA155140EAD9
:104A100016506FF003020AE04FEAC3214FEAC520A7
:104A2000F40241EA555140EA56506FF0020202EB9F
:104A30002E4201EB025585EACE710AD05FEA440CA2
:104A400018BF24F0004450F1000041F1000120EAB9
:104A5000D47040F2FE7C624500D270BDA84214BF03
:104A60004FF080444FF04044002E08BF0024BEF1B8
:104A7000806FA8BFA1F1C041BDE8704080F2828084
:104A80004FF0000001F1C04101F0004170479EEA83
:104A90000C0F0CEA131518BF95EA0C0F06D04FF057
:104AA000000081EA030E0EF0004170BD00F01CF81A
:104AB0008900013E00F007B800F009B84FEA430C46
:104AC0005FEA5C5C08D081EA030100F05BB84FEA62
:104AD000410C5FEA5C5CF6D14FF000000149704781
:104AE0000000FF070000F87F0EF1020E2EF0030E0B
:104AF0005EF8046B364205D4012A43EB030515F535
:104B0000001F12D8012841EB010C1CF5001F0CD826
:104B10000ED14FEAD17C15F5001F0CEB4C0C0CF1BB
:104B2000020C08BF4CEBD37C04E04FF0080C01E012
:104B30004FEAD37C0CEB4C0526FA05F606F0070687
:104B4000B6F1040C06D20EEB860CBDE870404CF0BA
:104B5000010C6047DFE80CF0090B02024FF0004146
:104B60004FF00000A1F5002170BD19461046012844
:104B700051EB010418BFD4F5001484BF002001F0EC
:104B8000004170BD0808A0F500114FEA31017047DF
:104B900043004FEAD30C4FEA3C0C43401FBF400791
:104BA0000CF1605113F0FE4F70471CF0006F03D101
:104BB00000200CF0004170470CF0004343EA5070B5
:104BC00010B540EACC0000F0C8F900BF0000009228
:104BD0004FEA0001FFF7D6BF4FF000414FF0000051
:104BE000A1F500217047000090EA010F48BF81F055
:104BF000004100F10482421A3CBF801A89184FEA32
:104C0000D0524FF07F4C1CEA410FA2EBD15318BF9A
:104C10009CEA026F00F03B804FF0004C4CEA002011
:104C20004CEA012121FA03FC10EB0C0C1ED202F11C
:104C3000FF325FEA1C2040EBC25038BF70471CF0C7
:104C40007F0F4FEA400C18BFBCF17F4F38BF704751
:104C5000C3F12003994008BF20F00100BCF17F4F51
:104C600038BF7047A0F1C04000F0BDB94FEA3C002A
:104C7000000A40EBC25028BF1CF0FF0F4FEA400C67
:104C8000E6D018BFBCF17F4F38BF7047EAE79CEA17
:104C9000026F05D010EA5C0F08BF00F000407047BB
:104CA00010B500F05AF900BF64FBBE3E4FF47F0C14
:104CB0001CEAD0121EBF1CEAD11392EA0C0F93EA31
:104CC0000C0F00F0858090EA010F48BF42F480721B
:104CD00040F4000C41F400002CF07F4120F07F40B4
:104CE00000B58142A2EB03020FF2081CACEB504E60
:104CF000C0F100009EF800E04FEA4E0E00FB0EFCF3
:104D000038BF49004FEA2C1C02F5FA020CFB0EF3E7
:104D10004FEACE1E4FEA112C4FEAC1210EEB635E23
:104D200042EB22420EFB0CFC4FEA1C5300FB03112A
:104D30004FEA112C4FEA01310EFB0CFC4FEADC4C20
:104D400000FB0C11C14228BF09184CEB03335DF87E
:104D500004EB10EB410143EBC250B2F57C0F38BFBE
:104D6000704729D512F0F00F1CBF00F1C04000F0D1
:104D700000407047008182838485868788898B8C78
:104D80008D8E8F919293959697999A9C9D9FA0A2B4
:104D9000A3A5A7A8AAACAEB0B2B3B5B7B9BCBEC004
:104DA000C2C5C7C9CCCED1D4D7D9DCDFE2E6E9ECA5
:104DB000F0F3F7FAFE0000004FEA400C0CF1807CA3
:104DC000BCF17E4F28BF7047B0F1C04000F00BB976
:104DD00090EA010F0CEAD11348BF42F48072624599
:104DE00038BF634507D213F47F0F16D080EA010065
:104DF00000F00040704710B500F0AFF8097EFC3EAF
:104E000000F005B880EA010000F00040704780EA39
:104E1000010000F0004000F0E6B812F47F0F04BF7C
:104E20000248704780EA010000F0DDB80000C07F52
:104E3000B0FA80F310FA03F2C3F19D030AD0D9054A
:104E400001EB1220530638BF704700F1010008BF84
:104E500020F00100704700004FF47F0C1CEAD012D4
:104E60001EBF1CEAD11392EA0C0F93EA0C0F00F05C
:104E7000478090EA010F48BF42F480724FF0004C27
:104E80004CEA00204CEA012102EB0302A0FB0113D3
:104E9000A2F50002002918BF43F001035B0028BF00
:104EA0004FEA330342EB22425FEA132C4CEBC25031
:104EB0002EBFBCEB436FB2F57C0F70474FEA036C1B
:104EC000BCF1004F08BF20F00100B2F57C0F38BFE5
:104ED00070470BD582F0FF0212F5803FC8BF7047C4
:104EE00000F1C040D8BF00F00040704700F5000C52
:104EF0005FEA4C0C48BF7047B0F1C04000F073B897
:104F000090EA010F0CEAD11348BF42F48072624567
:104F100038BF634504D280EA010000F000407047CA
:104F200010B500F01AF800BF8900013E00F007B884
:104F300000F009B85FEA410C5FEA1C6C08D080EA17
:104F4000010000F050B85FEA400C5FEA1C6CF6D13B
:104F50004FF00040A0F5800070470EF1020E2EF0D9
:104F6000030E5EF8044B244204D44FEA4102B2F12E
:104F70007F4F11D84FEA4003B3F17F4F0CD80ED1C9
:104F80004FEAD07CB2F17F4F0CEB4C0C0CF1020CD1
:104F900008BF4CEBD17C04E04FF0080C01E04FEA75
:104FA000D17C0CEB4C0324FA03F404F00704B4F1B5
:104FB000040C06D20EEB840CBDE810404CF0010C42
:104FC0006047DFE80CF0070802024FF00040A0F550
:104FD000800010BD0846420018BFD2F1807288BF21
:104FE00000F0004010BDFF2141EAD050C0057047DD
:104FF00090EA010F48BF81F000413FF5FCAD421A35
:1050000004D882F00042A0EB020011444FEAD052D3
:105010004FF07F4C1CEA410FA2EBD15318BF9CEA22
:10502000026F4AD04FF0004C4CEA00204CEA0121BC
:1050300021FA03FCB0EB0C0C0FD412F0FE0F36D0AB
:105040005FEA4C001DD5001240EBC25038BF7047DC
:105050001CF03F0F18BF70470BE0A2F101025FEA9E
:105060001C2040EBC25038BF70471CF07F0F18BFA8
:105070007047C3F12003994014BF401E20F0010087
:10508000704780084FEA122308BF7047B0FA80FCCF
:10509000A2EB0C02CCF1280C60FA0CF093EA122F70
:1050A00004BF00EBC25070474FEAC3707047130A49
:1050B0005FEADC1008BF7047F6E79CEA026F04D095
:1050C00010EA5C0F08BF0020704710B5FFF745FFDE
:1050D00040DFF63E81F000407047FBF7F5BA0CF078
:1050E0000F03092B08BF082000F059800A2B0BD0B2
:1050F000082B18BF704708BF1CF0400F0AD04FF0B4
:1051000000004FF0000170471CF0400F18BF4FF037
:10511000004070471CF0100F08D020F0704300F0E2
:105120007F4242EAD3014FEA4370704700F060408B
:1051300021F07F4242EA000201F07F4040EA7270B3
:1051400070474FF0FF0C4CF4E06C1CEA11531CBF8D
:105150009CEA030C9445C2BFDA4201EB025170474E
:10516000002B0DD0BCF1000F0FD0002A01F0004140
:10517000A4BF41F0E04141F07F614FF00000704773
:1051800001F000414FF00000704750EA01334FF04A
:105190009B0C18BF4CF0806C7FF4F4AB70471CF490
:1051A000801F11D01CF4E02F03D06FEACC314900EE
:1051B00070474FF04050EFF3008222F0704242EA15
:1051C000000282F3008870474FF000007047010230
:1051D00002030405060708090A0B0C0D0E0F101038
:1051E000010202030405060708090A0B0C0D0E0F45
:1051F0001010000000000000000001020304060778
:105200000809000000000102030404000008000077
:105210000000000000020001000010000240000039
:10522000000000A00000000005400000000000C8D1
:10523000000000000C4000000000409C0000000046
:10524000194000000020BCBE0000000034400000F7
:10525000BFC91B8E00000004B5400000504BCFD0EA
:105260006607E2CF010000006C4100003E8251AAB7
:10527000DFEEA73401000000D9420000DCB5A0E257
:105280003A301F97FFFFFFFFB4450000FD25A0C87F
:10529000E9A3C14FFFFFFFFFFF3F000000000080B8
:1052A00000000000FF3F0000000000800000000040
:1052B000EC520008000000207000000028010008E7
:1052C0005C530008700000207808000044010008CA
:1052D0001C00000043000000F8FFFFFF0C0000006E
:1052E0000E0000000F0000002E0000000000000073
:1052F00000000000000000000000000000000000AE
:10530000000000000000000000000000000020413C
:105310000000C0400000000000000000000000008D
:10532000000000000000000000000000000000007D
:1053300000000000A0000020D80100200C000000A8
:10534000000000000000000F00000000010000004D
:0C535000100000000000000000127A00B5
:04000005080000ED02
:00000001FF
