:020000040800F2
:1000000050090020A901000873460008013B0008C0
:1000100071460008451500080D4C0008000000005E
:10002000000000000000000000000000B1460008D1
:10003000751A00080000000075460008B346000865
:10004000C3010008C3010008C3010008C301000880
:10005000C3010008C3010008C30100087F1A00089B
:10006000C3010008851A00088B1A0008C3010008A4
:10007000C3010008C3010008C3010008C301000850
:10008000C3010008C3010008C3010008C301000840
:10009000C3010008C3010008C3010008911A000849
:1000A000C3010008C3010008C3010008C301000820
:1000B000C3010008C3010008C3010008C301000810
:1000C000C3010008C3010008C3010008C301000800
:1000D000C3010008014C0008C3010008C301000867
:1000E000771A0008C3010008C301000800F002F8F5
:1000F00000F04AF80AA090E8000C82448344AAF178
:100100000107DA4501D100F03FF8AFF2090EBAE875
:100110000F0013F0010F18BFFB1A43F0010318473B
:100120007C5A00009C5A0000103A24BF78C878C15D
:10013000FAD8520724BF30C830C144BF04680C60ED
:10014000704700000023002400250026103A28BF35
:1001500078C1FBD8520728BF30C148BF0B60704739
:10016000662905F03084642900F0948000207047EF
:100170001FB500F03FFC04000020002105F030F81E
:10018000E0601FBD10B510BD00F034FD1146FFF753
:10019000EFFF04F02DFF00F052FD03B4FFF7F2FF74
:1001A00003BC00F095FD000009488047094800475E
:1001B000FEE7FEE7FEE7FEE7FEE7FEE7FEE7FEE717
:1001C000FEE7FEE704480549054A064B7047000074
:1001D00039470008ED0000085003002050090020B6
:1001E00050050020500500200FB41CB5074B06AA8F
:1001F0007B4469460090059800F0DBFB00206946CF
:1002000000F0EAFB1CBC5DF814FB0000E5070000F1
:100210000FB41CB50C0007AA009001D02044401E6A
:10022000074B7B4469460190069800F0C2FB002C06
:1002300003D06946002000F0CFFB1CBC5DF814FB26
:10024000BD07000070B5044685690068C10601D588
:10025000302600E02026C00707D070BDD4E9012178
:1002600030469047206A401C20626D1EF6D570BD56
:1002700070B5044685690078C00707D170BDD4E920
:10028000012120209047206A401C20626D1EF6D577
:1002900070BD00002DE9F041064600241068752964
:1002A000314616A510D0AFF30080002802DA404294
:1002B00013A507E031688A0701D512A502E04907B6
:1002C00004D511A5012401E0AFF3008000210A222A
:1002D00006F1240709E0B0FBF2FCB0FBF2F302FBED
:1002E0001C00303078541846491C0028F3D12346AE
:1002F0002A463046BDE8F04100F0EDB800000000AD
:100300002D0000002B000000200000002DE9F05F10
:10031000894604464FF0000ADFF824B1FB44C0F8D8
:1003200020A02046E168884700287DD0252806D0F7
:10033000D4E901219047206A401C2062F1E70025A2
:100340005F462046E16888472028064607DB312EB5
:1003500005D2B81910F8200C08B10543F1E7A80739
:1003600001D525F00405C4F81CA00027C4F818A086
:100370002A2E09D0304604F06EFC38B304EB87080F
:10038000303EC8F8186019E059F8041B204604EB09
:1003900087029161E1688847012F064618D1E0691C
:1003A000002820DA25F020051DE0D8F8180000EB21
:1003B000800006EB40003038C8F818002046E1689D
:1003C0008847064604F047FC0028EED1012F0AD0EA
:1003D0002E2E08D12046E16888477F1C0646022F52
:1003E00045F02005C4DBA069002803DA404245F04F
:1003F0000105A061E80701D025F01005A6B1A6F11E
:100400004100192802D8203645F400654A46314695
:10041000204625604D46FFF7A3FE60B1012807D0B6
:10042000ED1D25F0070000E007E000F1080978E77E
:1004300005F1040975E730467AE7206ABDE8F09FC8
:10044000D657000010B5431C02E010F8011B71B133
:100450008107FAD14FF0013202C88C1A8C4314EA9A
:10046000C211F9D0C01A0A0603D0C01E10BDC01AAE
:1004700010BD0A0401D0801E10BD0902FCD0401E30
:1004800010BD4FF0000200B5134694469646203941
:1004900022BFA0E80C50A0E80C50B1F12001BFF43D
:1004A000F7AF090728BFA0E80C5048BF0CC05DF8A3
:1004B00004EB890028BF40F8042B08BF704748BFF1
:1004C00020F8022B11F0804F18BF00F8012B704765
:1004D0007047704770472DE9F0470D4699469246A0
:1004E000044600F124080168880604D5E06921F07B
:1004F0001001216000E00120A84201DD471B00E05F
:100500000027A1697A1902EB0900081AA061207876
:10051000C00602D42046FFF795FE002608E0D4E985
:1005200001211AF806009047206A401C761C2062C0
:100530004E45F4DB2078C0060AD52046FFF782FE40
:1005400006E0D4E9012130209047206A401C206257
:10055000381EA7F10107F4DC07E0D4E9012118F8FF
:1005600005009047206A401C2062281EA5F1010565
:10057000F3DC2046FFF77CFE2078000602D502203F
:10058000BDE8F0870120FBE770472DE9FF4F0C46DF
:100590001E464FF0FF378BB0D2E90001DDF86080D6
:1005A0000A908A46C1F30A5505B93D46002108461E
:1005B0004FF00000BAF1000F00F4400005DA00EB44
:1005C00080004FF4400101EA50004FEA9059B9F120
:1005D000010F00DDB9460A9850EA4A000ED044F6F1
:1005E0001050A5F2FF3545432F14B8F1000F1ED06F
:1005F0007542291E1EDDC9F100021CE0B8F1010F91
:100600004FF0000001D0302103E0F24305E0215417
:10061000401CB042FBDB30460022002121540B99E4
:10062000C1F80880C1E900200FB0BDE8F08FBD1B04
:100630006D1CDEE74A4600DA694206A800F064FA5B
:1006400006AB93E8070003AB83E8070050460A991E
:1006500000F045FB8DE80700A0F500501F38009022
:100660000398002D0ADD42F21F014A460844002388
:1006700003A90390684600F0AEFD09E0A0F5005024
:100680004A461F38002303A90390684600F0B8FDCE
:100690008DE807000004000C03D04FF0FF30410844
:1006A00000E01046B8F1000F03D00022009215467A
:1006B0001EE0751E05D400F0A1F9303262556D1EA2
:1006C000F9D5B3460122084302D000227F1C04E082
:1006D0002078302801D100227F1E002A099784D07B
:1006E0001DE0112D07DA00F089F9303262556D1CDA
:1006F00050EA0102F5D1084302D00098C8B10EE0DB
:100700000021681E05E0235C625C63542254401E95
:10071000491C8142F7DBAB46A81B401E0990002014
:1007200004F80B000B98099AC0F80880C0E9002B68
:100730007AE711264FF0000857E72DE9F04F884679
:100740000446D21D22F0070191B0D1E90001CDE9A4
:100750000A0104F05CFA02460B98C00F01D02D206C
:1007600007E02068810701D52B2002E0202101EA63
:10077000C000032A099001D0072A05DB0346414641
:10078000204600F081F90BE12078800601D5E06970
:1007900000E00620B8F1650F814606D0B8F1660F7B
:1007A00018D0B8F1670F70D131E00020B9F1110F06
:1007B000009001DB112301E009F101030AAA01A95C
:1007C0000CA8FFF7E2FEDDE90C70002609F1010537
:1007D000834647E001204B4600904FF000470AAAAD
:1007E00001A90CA8FFF7D1FEDDE90DB00C995D461B
:1007F000002610B909F101000D18B9EB050003D46A
:10080000C0F1FF3609F10105A5EB09002BE0B9F1B4
:10081000010F01DA4FF001090020B9F1110F00902A
:10082000484601DD112300E003460AAA01A90CA8ED
:10083000FFF7ABFEDDE90C704D46002683462078BD
:1008400000070AD4AB4500DA5D4601A8012D04DD9E
:10085000411911F8011C302907D04F4502DA17F170
:10086000040F04DA012082460FE06D1EEEE7002F30
:1008700002DCED1B3E4403E0781CA84200DD7D1C39
:10088000B81B00F1010A4FF000472078000703D49D
:10089000AA4501DB4FF0FF3A0021B7F1004F0DF1FF
:1008A00043088DF8431024D002202B23002F01DAB7
:1008B0007F422D230A21021EA0F1010000DC5FB15E
:1008C00097FBF1FC97FBF1F201FB1C7C17460CF146
:1008D000300C08F801CDEEE7A8F101000370218883
:1008E000090501D5452100E06521A0F1010800F8C6
:1008F000011C09980FA9A1EB0807FF1D00B10120F9
:10090000411901EBEA70A1693844081A401EA06140
:100910002078C00602D42046FFF794FC099828B13D
:10092000D4E901219047206A401C20622078C0064B
:1009300022D52046FFF786FC1EE0002E04DBB345DF
:1009400002DD01A8805D00E03020D4E9012190475C
:10095000206A401C2062761CAAF101005FEA000AAE
:100960000AD100F047F8C0680168405CD4E9012171
:100970009047206A401C2062281EA5F10105DCDC9E
:1009800007E0D4E9012118F8010B9047206A401CC8
:100990002062381EA7F10107F3DC2046FFF768FC50
:1009A000032011B041E6000001694A1C0261087889
:1009B000704700B58FB0CDE901310021059105499F
:1009C0007944CDE9031011466846FFF79FFC0FB04C
:1009D00000BD0000E5FFFFFF0A6802F8010B0A6096
:1009E0007047D1E900239A4202D2531C0B60107069
:1009F00070470000004870470C03002030B5B0F18C
:100A00000A024FEA900E71F100034EEA817EB0EBCC
:100A10000E0061EB91014FEA101E4EEA017E10EBD1
:100A20000E0041EB11114FEA102E4EEA016E10EB51
:100A30000E0041EB11214FEA104E4EEA014E10EB31
:100A40000E0041EB1141401841F100014FEAD00086
:100A500040EA41704FEAD10110EB80054FEA810472
:100A600044EA907444EB01046D1944EB0404521BF6
:100A7000A3414FF0000348BF0A3200D530BD401CEF
:100A800041F1000130BD00002DE9F0411F46044650
:100A900003260168072A01F4006004DB08B116A5EB
:100AA00005E016A503E008B115A500E015A521F0A5
:100AB00010002060A069C01EA0610FB1401EA0619F
:100AC0002046FFF7BFFB4FB1D4E9012138469047DC
:100AD000206A401C2062C01C206206E0206AFAE7FF
:100AE000D4E9012115F8010B9047761EF8D2204673
:100AF000FFF7BEFBBDE8F0814E414E006E616E0017
:100B0000494E4600696E66002DE9F047814616465B
:100B10008AB0354878440DC88DE80D0032487844D5
:100B2000801C03AC0DC884E80D0041F69B300844DE
:100B3000372190FBF1F290FBF1F5A5F1800501FB67
:100B400012041B3C02D56442012000E00020DFF8C3
:100B500098A080460027FA44AAF1BE0A0EE0E007FA
:100B60000AD03246684607EB470101230AEB8101B0
:100B700000F046FB8DE8070064107F1C002CEED1CE
:100B8000194F7F44AE3F19E0E80715D007EB04107A
:100B90000DF1180A90E80E008AE80E00C068F042D5
:100BA00001D1981908903246012306A903A800F044
:100BB00027FB03AB83E807006D10641C002DE3D115
:100BC0004FF0010332466946B8F1000F03A802D086
:100BD00000F001FB01E000F013FBC9E90001C9F8D6
:100BE00008200AB0BDE8F0876C500000004870474C
:100BF000EC0200207546FFF7F9FFAE460500694696
:100C0000534620F00700854618B020B5FFF7DAFA02
:100C1000BDE820404FF000064FF000074FF00008FD
:100C20004FF0000B21F00701AC46ACE8C009ACE87E
:100C3000C009ACE8C009ACE8C0098D46704710B5E2
:100C40000446AFF300802046BDE81040FFF7A5BA88
:100C50004FF0013C50F8042B51F8043B9A4221D14B
:100C6000A2EB0C03934313EACC1317D150F8042BD7
:100C700051F8043B9A4215D1A2EB0C03934313EABB
:100C8000CC130BD150F8042B51F8043B9A4209D1F4
:100C9000A2EB0C03934313EACC13DBD04FF000001C
:100CA000704700BFD01A01BAB1FA81F101F0180102
:100CB00022FA01F0CB40C1F12001DBB2C0B2C01A70
:100CC0002CFA01F3D11A914311EAC311E6D170470E
:100CD00001491820ABBEFEE72600020070475FEA1C
:100CE000400C08BF91F0000F4FEA8C234FEAC1225D
:100CF00043EA51514FEA1C5018BF00F5F0404FEA4B
:100D0000300018BF41F000415FEA6C5C00F02980C0
:100D1000BCF1FF3F08BF40F080407047130C06BF96
:100D200012044FF0100C4FF0000C130E04BF12020F
:100D30000CF1080C130F04BF12010CF1040C930FFB
:100D400004BF92000CF1020CD30F04BF52000CF14F
:100D5000010C11464FF00002A0F11F00A0EB0C00A7
:100D6000704711F0004F08BF704731F000413FF469
:100D7000D5AF0B0C06BF09044FF0100C4FF0000C60
:100D80000B0E04BF09020CF1080C0B0F04BF090184
:100D90000CF1040C8B0F04BF89000CF1020CCB0F7B
:100DA00004BF49000CF1010CCCF12003A0EB0C00B6
:100DB00022FA03F302FA0CF241EA030100F1010006
:100DC000704720F07F4C80EA030023F07F47ACEBB4
:100DD000070303F57C5300F0004003F1FF032DE906
:100DE00080494FEA154B09B44FEA144325EA0B4EEC
:100DF00024EA03480FF2042606EB132749083E783D
:100E00005FEA320203FB0667C7F5000707FB06F639
:100E10004FEA54374FEAD64606F1020607FB066C46
:100E2000CCF1005C4FEA1C472CEA074C07FB06F4A8
:100E30000CFB06F504EB15464FEA961634BF00206E
:100E40004FF000404FEAD13706FB07FC4FEA1C4C3D
:100E50000CFB0BF7D21B03FB0CF761EB07010CFB40
:100E60000EF7B0EB074072EB17420CFB08F734BFEC
:100E7000A2EB0742B2EB074261EB17414FEA0C4489
:100E80004FEA910706FB07FC4FEA1C4C0CFB0BF7E3
:100E9000B0EBC74072EB573203FB0CF734BFA2EB49
:100EA000C742B2EBC74261EB57310CFB0EF7B0EB18
:100EB000C70072EB57720CFB08F734BFA2EBC702F6
:100EC000B2EBC70261EB5771039F4FEA816141EAC0
:100ED000921104EBCC044FEAD1374FEA826206FB51
:100EE00007FC42EA90124FEA80604FEA1C4C0CFB70
:100EF0000BF7D21B03FB0CF761EB07010CFB0EF7A2
:100F0000B0EB074072EB17420CFB08F734BFA2EBC3
:100F10000742B2EB074261EB17414FEA8C554FEAAB
:100F2000910704EB9C2406FB07FC4FEA1C4C0CFBCE
:100F30000BF7B0EBC74072EB573203FB0CF734BF33
:100F4000A2EBC742B2EBC74261EB57310CFB0EF785
:100F5000B0EBC70072EB57720CFB08F734BFA2EB83
:100F6000C702B2EBC70261EB577115EB4C254FEA94
:100F7000816141EA92114FEA82624FEAD13742EA37
:100F8000901206FB07FC44F100044FEA80604FEA30
:100F90001C4C0CFB0BF7D21B03FB0CF761EB07019E
:100FA0000CFB0EF7B0EB074072EB17420CFB08F797
:100FB00034BFA2EB0742B2EB074261EB174115EBDE
:100FC0001C154FEA813141EA92414FEA823242EAEE
:100FD00090424FEA80304FEA0C7644F1000448EA30
:100FE00003434EEA0B484FF0000EB2EB080C71EBD6
:100FF000030724BF624639464EEB0E0E4FF0000B3E
:101000000018524149414BEB0B0BB2EB080C71EB52
:1010100003077BF1000B24BF624639464EEB0E0EF0
:101020004FF0000B0018524149414BEB0B0BB2EB58
:10103000080C71EB03077BF1000B24BF62463946B5
:101040004EEB0E0E51EA020718BF46F0010616EBF2
:101050000E7655F1000254F1000103D5BDE8890177
:10106000BDE80088BDE88901BDE80048B6195241D5
:1010700041EB0101A3F10103704780807F7E7D7CFD
:101080007B7A7978777676757473727171706F6E1A
:101090006E6D6C6C6B6A6A696868676666656464C5
:1010A000636362616160605F5F5E5E5D5D5C5C5B4F
:1010B0005B5A5A59595858575756565555555454BE
:1010C000535352525251515050504F4F4F4E4E4D1C
:1010D0004D4D4C4C4C4B4B4B4A4A4A494949484868
:1010E00048474747474646464545454444444443A8
:1010F00043434342424242414141002B9C4630D44B
:1011000077002BD01CB54FEA370703B44FF010001F
:101110004FF01001BAF1000F06D0BCF1000FDCBF98
:1011200040F0080040F008014FF000000FBCBDE89F
:1011300010400BF1010BBBF1010F08BF5FEA17076D
:1011400022BF12F1010211F101014FF0004143F100
:10115000000300F0004043EA00007047F9D357084D
:10116000D0E746EA064613F1400F4FEA16461FDD68
:1011700013F1200FDFBF16430A46002120335B42E4
:10118000BED0C3F1200746EA064602FA07F74FEA47
:10119000164646EA0706C3F1200722FA03F201FACF
:1011A00007F721FA03F14FF0000342EA0702A7E72D
:1011B00046EA020646EA06464FEA164646EA0106AF
:1011C000BCBF46EA0646360C4FF000034FF0000263
:1011D0004FF0000194E72DE9804C9A46934670B495
:1011E00091E8380007C831EA400C48BF34EA430CA4
:1011F00003D5FFF7E6FDFFF780FFF0BCBDE8008CEC
:101200002DE9804C9A46934670B491E8380007C89F
:1012100010F0804F08BF13F0804F03D100F005F8A5
:10122000FFF76BFFF0BCBDE8008C20F07F4780EA41
:10123000030023F07F4C07EB0C03A3F57C5300F075
:101240000040A3F1FE0392F0000F00F0B38095F090
:10125000000F00F077802DE901494FEA11404FEA75
:10126000144621EA004800FB06FC24EA064708FB76
:1012700006F607FB08F800FB07F718EB06484CEBEF
:10128000164C4FEA124B18EB07484FEA15464CEB49
:10129000174022EA0B4E0BFB06FC25EA06470EFB25
:1012A00006F607FB0EFE0BFB07F71EEB064E4CEB9C
:1012B000164C4FF000061EEB074E4CEB174B18EB8D
:1012C0000B0840F1000018EB0E0B58EB000840F142
:1012D00000008F1A4FF000013CBFC943661B14BFCA
:1012E000B5EB040C00213CBFC943F61B4FEA174481
:1012F0004EEA8E0E27EA04454FEA1C4704FB0762BC
:101300002CEA074C05FB07F70CFB05F604FB0CFC6D
:1013100016EB074642EB174216EB0C4642EB1C421B
:101320001BEB060658EB0202414146EA9E0601D538
:10133000BDE80189B619524141EB0101A3F1010356
:10134000BDE801894FEA14454FEA114724EA0546F2
:1013500021EA074C05FB07F406FB07F70CFB06F137
:1013600005FB0CFC11EB074144EB17444FEA124715
:1013700011EB0C4144EB1C4422EA074C05FB07F23D
:1013800006FB07F70CFB06F605FB0CFC16EB074605
:1013900042EB174216EB0C4642EB1C456A1854F11F
:1013A000000148BF7047B619524141EB0101A3F15A
:1013B0000103704795F0000F37D04FEA11424FEA12
:1013C000144721EA024624EA074C02FB07F106FB18
:1013D00007F70CFB06F402FB0CFC14EB074441EB93
:1013E00017414FEA154714EB0C4441EB1C4125EA29
:1013F000074C02FB07F506FB07F70CFB06F602FBA2
:101400000CFC16EB074645EB174516EB0C4645EB77
:101410001C42121951F1000148BF7047B6195241E0
:1014200041EB0101A3F1010370474FEA14454FEA74
:10143000114724EA054621EA074C05FB07F106FBA4
:1014400007F70CFB06F24FF0000605FB0CFC12EB55
:10145000074241EB174112EB0C4251EB1C4148BFD4
:101460007047921841EB0101A3F10103704700009E
:1014700070B5044600688168C943C90717D18168FF
:1014800021F00101816000F011FF05460AE000BF74
:1014900000F00CFF401B022804D920688068C0437C
:1014A000C00706D020688068C043C007F0D0002085
:1014B00070BDA06A40F01000A062E06A40F0010038
:1014C000E062012070BD0000F8B5002604460096D9
:1014D00000688168C943C9072DD0816841F00101C6
:1014E0008160164816490068B0FBF1F000E0401E2C
:1014F00000900028FBD100F0D9FE054616E000BFA1
:1015000000F0D4FE401B022810D920688068C04338
:10151000C0070BD0A06A40F01000A062E06A40F063
:101520000100E06284F824600120F8BD2068806832
:10153000C043C007E4D10020F8BD000070000020C7
:1015400040420F00FEE710B50022012100F087F8AD
:10155000BDE81040052000F069BD10B504460298B2
:10156000216022716371A0712820A0720620E071B1
:101570000C202072142060720820E072322000F0EB
:1015800055FD00223321204600F069F80022332166
:10159000204600F064F8052000F048FD00223221CA
:1015A000204600F05CF8052000F040FD00222021DC
:1015B000204600F054F8052000F038FDE1790022C3
:1015C000204600F04CF8217A0022204600F047F82F
:1015D000617A0022204600F042F8A17A00222046DB
:1015E00000F03DF800220121204600F038F82046A6
:1015F0000022BDE81040022100F031B830B4447937
:1016000000238C4201D8641EE1B28479944201D84F
:10161000641EE2B232B1012A06D0022A06D0032AA1
:1016200006D007E00B4605E0403102E0143100E04F
:101630005431CBB230BC43F08001002200F00FB82F
:10164000012200F00CB870B50C46054603E02846B0
:10165000641CFFF7F5FF21780029F8D170BD7CB537
:1016600006460807040EF07A01F0F00518B145F0BF
:10167000080544F00804012A01D02AB108E045F029
:10168000010544F0010403E025F0010524F0010404
:1016900045F004008DF80400012000F0C7FC8DF82F
:1016A000055044F004008DF80600012000F0BEFC57
:1016B0004FF47A708DF8074000903179042301AA25
:1016C000306800F0BDFE7CBD01F0E8BD10B50368D8
:1016D00000225A624FF47A7303E00268546A9C4213
:1016E000FCD3491E89B2F8D210BD036800225A62A9
:1016F0000068426A8A42FCD370470068FFF7E6BF81
:101700000068FFF7F2BF30B482608380016030BCB4
:101710000846FFF7D9BF2DE9F0410746002500F044
:1017200057F800240126384600F061F800213846B9
:1017300000F0C0F801213846FFF7E2FF384600F01C
:1017400047F8384600F00FF818B106FA04F02843BD
:10175000C5B232213846FFF7D3FF641C082CE2DB08
:101760002846BDE8F0818188806800F08DBD70B5A5
:10177000044600F04DF801212046FFF7BEFFCC21C2
:10178000204600F066F84421204600F062F8C821A7
:101790002046FFF7B2FF204600F03AF8012120462C
:1017A000FFF7ABFFCC21204600F053F8BE212046C6
:1017B00000F04FF82046FFF7AEFF05462046FFF742
:1017C000AAFF45EA0020000903F0A8FFE06070BD11
:1017D0001FB5002100910191029103918188009130
:1017E000012102918068694600F05EFC1FBD1FB5B3
:1017F00000210091019102910391818800910121C2
:101800000191022103918068694600F04DFC1FBDE3
:1018100070B505460024FFF7EAFF0021284600F0D6
:1018200049F84FF4F0712846FFF76AFF2846FFF7A2
:10183000CFFF50212846FFF763FF2846FFF793FFAD
:1018400000B901244FF4C8712846FFF759FF20461C
:1018500070BD2DE9F0410E460746FFF7C8FF002492
:10186000012505FA04F03042384611D0FFF7BFFFDA
:101870000021384600F01EF801213846FFF740FFEE
:101880003846FFF7A5FF32213846FFF739FF0CE055
:10189000FFF7ADFF0021384600F00CF83221384642
:1018A000FFF72EFF3846FFF793FF641C082CD8DBA8
:1018B000BDE8F08183880A468068194600F0F1BCD3
:1018C00010B586B004464FF0FF32072103A88DE81B
:1018D0000700164801230022D021006800F046FED0
:1018E0009DF80C0003F0BEF920709DF80D0003F088
:1018F000B9F960709DF80E0003F0B4F9A0709DF87E
:101900000F0003F0AFF9E0709DF8100003F0AAF9A2
:1019100020719DF8110003F0A5F960719DF8120087
:1019200003F0A0F9A07106B010BD00000000002077
:101930000149086000F06AB800000020F0B50446D4
:1019400087B040B203F096F900F07F008DF80C00EC
:1019500044F3072003F08EF900F07F008DF80D00AE
:1019600044F3074003F086F900F07F008DF80E0085
:101970008020254D8DF80F0003AE04274FF47A74B4
:101980000096CDE9017401230722D021286800F0D8
:101990001BFF0028F4D1012604AF0097CDE90164B4
:1019A00033460E22D021286800F0E0FD9DF810009B
:1019B00040F005008DF810000097CDE90164012387
:1019C0000E22D021286800F0FFFE0028F4D105AFD8
:1019D0000097CDE9016401230F22D021286800F08F
:1019E000C5FD9DF8140020F001008DF8140000974B
:1019F000CDE9016401230F22D021286800F0E4FE24
:101A00000028F4D107B0F0BD0000002070B586B00A
:101A100000208DF80C008DF81000012503A8144E4D
:101A2000CDE900054FF47A7402942B460F22D021A1
:101A3000306800F09BFD9DF80C00400716D404A808
:101A4000CDE90005029401230E22D021306800F078
:101A50008DFD9DF81000029440F02000CDE90005B6
:101A600001230E22D021306800F0AEFE06B070BD1A
:101A70000000002070474FF4004000F009BB022036
:101A800000F006BB082000F003BB102000F000BBF4
:101A900010B5202000F0FCFABDE810404FF4807033
:101AA00000F0F6BAF8B50024009490F824202546FA
:101AB000012A12D0012280F824204A681F23072A15
:101AC0000DD20668776B521E02EB820293409F4351
:101AD0000B6893401F43776319E00220F8BD066846
:101AE0000D2A0AD2376BD21F02EB820293409F432A
:101AF0000B6893401F43376309E0F76A0D3A02EB26
:101B0000820293409F430B6893401F43F7620A6829
:101B1000072306680A2A0AD3F7680A3A02EB420248
:101B200093409F438B6893401F43F76008E03769F9
:101B300002EB420293409F438B6893401F433761FF
:101B40000A68102A01D0112A20D1124B02689A4249
:101B500017D193681B0219D4936843F40003936070
:101B60000968102912D10C490C4A0968B1FBF2F13D
:101B700001EB8101490000E0491E00910029FBD1E1
:101B800004E0816A41F020018162012480F8245040
:101B90002046F8BD002401407000002040420F00A4
:101BA0000068C06C704700002DE9F0414FF000075D
:101BB00004003D467ED0A06A002628B9E66284F87B
:101BC0002460204600F07EF82046FFF751FCA16A11
:101BD000C90600D420B1A06A40F01000A06269E0FC
:101BE000A16A21F4885141F00201A1626268E169B1
:101BF000237B0A4347EA43010A43A1684FF48077F5
:101C0000B94209D0012907D05FF0000194F814C04F
:101C1000BCF1010F02D00AE03946F7E7F3B1A36A3D
:101C200043F02003A362E36A43F00103E362236805
:101C3000D3F804C02CF4694C4CEA010CC3F804C07E
:101C400021688B68DFF870C003EA0C0313438B60D4
:101C5000A168B9420BD0012909D00CE0DFF85CC0C3
:101C6000A3690CEB43330B4343F40061DFE7218AA4
:101C70000D05A5F580152168CB6A23F470032B436D
:101C8000CB62216889680E4B1940914208D1E66207
:101C9000A16A21F0020141F00101A162BDE8F081D9
:101CA000A06A20F0020040F01000A062E06A40F05C
:101CB0000100E0620120F1E7FDF7E1FF00E0FFFF36
:101CC000FE0E1FFF00B585B0002100910191029129
:101CD000039100680E49884218D10E48816941F489
:101CE00000718161816901F400710491816941F0A1
:101CF000040181618069694600F0040004900220BB
:101D0000009003200190044800F0CEF905B000BD1A
:101D10000024014000100240000801402DE9F84372
:101D200000270D460446009700F0C0FA8046206860
:101D30008168C90508D5A06A40F02000A06284F837
:101D400024700120BDE8F8834168C90503D4C06A46
:101D500010F4700F2AD0022000F0B2FE3B4909684F
:101D6000B1FBF0F62068036939490B424FEA610183
:101D70004FEAA1121FD1C3684FEA611C13EA0C0F8E
:101D800019D103690B4225D1C068104222D1142019
:101D900023E0681C0AD02DB100F088FAA0EB0800FF
:101DA000A84203D920680068800725D5206800680C
:101DB0008007EED52DE003690B4202D1C1681142C4
:101DC00006D0026923490A4206D1C068084203D1FD
:101DD000542002E0292000E0FC204643009816E051
:101DE000681C11D02DB100F061FAA0EB0800A842E8
:101DF0000AD90098B04207D2A06A40F00400A0625D
:101E000084F8247003209DE70098401C0090B042A5
:101E1000E6D321686FF012000860A06A40F40070F9
:101E2000A06220688068C0F3424007280CD1207B64
:101E300050B9A06A20F48070A062A06AC00403D4E4
:101E4000A06A40F00100A06200207BE77000002043
:101E5000244992244992240070B5044690F8240045
:101E600001280DD0012084F824002046FFF72CFB28
:101E700002004FF0000005D084F82400104670BD29
:101E8000022070BDA16A40F20123994341F48071A0
:101E9000A1621F4D23681F49AB4218D10E6816F48A
:101EA000702F14D0A66A46F48016A6620E687605D6
:101EB00005D5A66A26F4005646F48056A662A66AA0
:101EC000F6040AD5E66A26F00606E66206E0A66A89
:101ED00026F48016A6625E68E9E7E06284F82400D2
:101EE0006FF00200186020688368C3F34243072B39
:101EF00005D1A84208D1096811F4702F04D0816877
:101F000041F480118160B9E7816841F4A001F9E7EB
:101F1000002801400424014010B5044690F8240034
:101F2000012807D0012084F824002046FFF7A0FAFA
:101F300010B107E0022010BDA16A21F4885141F0E0
:101F40000101A162002184F8241010BD10B590F8A1
:101F500021100022022905D00421816380F820206D
:101F6000012010BD01680B6823F00E030B600168AF
:101F70000B6823F001030B6090F84030C46B012123
:101F800001FA03F3636080F8211080F820201046E6
:101F900010BD000010B590F821100024022903D0D4
:101FA0000421816301243DE001680A6822F00E02E9
:101FB0000A6001680A6822F001020A601A4A016890
:101FC000914201D1012121E0174A1432914201D1FD
:101FD00010211BE0144A2832914201D1891515E0E5
:101FE000114A3C32914201D189140FE00E4A50321D
:101FF000914202D14FF4803108E00B4A64329142A1
:1020000002D14FF4801101E04FF08071064A083A86
:102010005160012180F82110002180F82010416BCF
:1020200001B18847204610BD0800024070B5044643
:1020300000F03CF90546601C02D0044800780444D6
:1020400000F034F9401BA042FAD370BD64000020B8
:1020500070B5082806D0202804D0102802D0B0F58A
:10206000807F0DD1084C617851B100256570012049
:10207000A0702A464021054800F013F9257070BD74
:10208000BDE8704002F032BE1000002000080140A0
:10209000044910B50A68024202D00860FFF7D8FF71
:1020A00010BD0000140401402DE9F84FDFF8B8918D
:1020B0000024A9F1040B23460F2709F1040AABF110
:1020C000040EC9E00125A5402A40AA427DD1674EF1
:1020D000D1F804C0ACEB0608B44532D014DCBCF136
:1020E000030F3AD009DCBCF1000F2AD0BCF1010F7C
:1020F0001CD0BCF1020F31D11DE0BCF1110F17D083
:10210000BCF1120F2AD119E0B8F5881F19D006DCEE
:10211000B8F5803F15D0B8F5801F1FD111E0B8F594
:10212000001F0ED0B8F5041F18D10AE0CB6815E0E7
:10213000CB681B1D12E0CB6808330FE0CB680C3373
:102140000CE08B682BB1012B4FF0080303D04561E5
:1021500004E0042302E0056100E00023FF2A01D827
:10216000064601E000F104064FEA840501D9A5F115
:102170002005D6F8008007FA05FC28EA0C0803FAC7
:1021800005F548EA0508C6F800804D68ED0062D5FF
:10219000374DAE6946F00106AE61AD6924F0030625
:1021A00005F001050095334D06EB050CDCF80850F1
:1021B000A607360F07FA06F825EA0805DFF8B88003
:1021C000404503D14FF0000817E044E0DFF8AC8051
:1021D000404502D14FF001080FE0DFF8A4804045F0
:1021E00002D14FF0020808E0DFF89880404502D1A4
:1021F0004FF0030801E04FF0040808FA06F848EA37
:102200000508CCF808804D68D9F80060ED024D460D
:1022100001D5164300E096432E604D68DAF8006061
:10222000AD02554601D5164300E096432E604D6839
:10223000DBF80060AD035D4601D5164300E0964330
:102240002E604D68DEF80060ED03754601D516433B
:1022500000E096432E60641C0D682A46E5407FF43A
:1022600031AFBDE8F88F00000804014000001110F4
:10227000001002400000014000080140000C014035
:1022800000100140001401408068084000D0012087
:102290007047C26821EA02030A4043EA0241016131
:1022A00070470AB1016170470904FBE70148806883
:1022B000704700006400002070B5040025D094F839
:1022C0003D00002520B984F83C50204600F014FB66
:1022D000242084F83D002068016821F0010101609C
:1022E0002068016841F4004101602068016821F420
:1022F0000041016000F042FD4D4A6168914201D801
:102300004C4900E04C49884201D2012070BD4B4944
:102310002368B0FBF1F15E6826F03F060E435E6075
:102320006368934206D94FF4967359434FF47A7316
:10233000B1FBF3F12368491C1E6A26F03F063143C6
:1023400019626168914210D84900401EB0FBF1F259
:10235000521CC2F30B02042A01D2042022E0B0FB7B
:10236000F1F0401CC0F30B001CE0A268F2B301EBDB
:10237000C10303EB0116431EB3FBF6F35B1C43F4EE
:1023800080431B0549D092B301EBC10202EB01115E
:10239000401EB0FBF1F0401CC0F30B0040F4804045
:1023A00040F400402168CA694CF6FF739A43104319
:1023B000C861D4E9071001432068026822F0C00216
:1023C00011430160D4E9030101432068826848F2A7
:1023D000FF339A4311438160D4E905010843216822
:1023E000CA6822F0FF021043C86001E00EE016E068
:1023F0002068016841F0010101602564202084F813
:102400003D00256384F83E50002070BD01EB41067D
:10241000431EB3FBF6F35B1CB3E70120C2E701EBFD
:102420004101401EB0FBF1F0401CC0F30B00B7E7C8
:10243000A086010080841E0000093D0040420F007C
:102440002DE9F84F1F4690468A460446DDF828904D
:10245000FFF72CFF054694F83D0020287FD1192373
:10246000012240492046009501F0AEFC002876D1BB
:1024700094F83C00012872D0012084F83C002068C8
:102480000168C90703D1016841F0010101602068BA
:10249000016821F400610160212084F83D001020D2
:1024A00084F83E0000262664C4F824806785608D89
:1024B00020852D48E0622B464A465146204601F0D1
:1024C00037FB90B9206841698069009036E02A4660
:1024D0004946204601F056FD50B1206C042804D135
:1024E0002068016841F4007101600120BDE8F88FA7
:1024F000606A216800780861606A401C6062618DD2
:10250000491E6185218D491E89B221852268536942
:10251000DB435B070BD451B100781061606A401C4B
:102520006062608D401E6085208D401E20852A4699
:102530004946204601F01CFC0028CED1208D002801
:10254000C5D154F83D0B016841F4007101602020B1
:1025500004F81E09E67766770020C7E7FFE7022048
:10256000C4E70000020010000000FFFF2DE9FF4F4C
:1025700083B00025DDE910799A4693460446DDF8DC
:1025800048800095FFF792FE064694F83D0020280B
:102590007CD11923012288492046009601F014FCC1
:1025A0000028F5D194F83C0001286FD0012084F870
:1025B0003C0020680168C90703D1016841F00101AE
:1025C00001602068016821F400610160222084F824
:1025D0003D00402084F83E0025646762A4F82A90FC
:1025E000608D20857548E062CDE9008653465A46E5
:1025F0002046049901F0EAFA00287CD1208DDFF80A
:10260000C091202768B1012814D0022820680168F1
:102610001ED041F4806101602068416980690090AA
:10262000BCE02068416981690091016841F4007152
:102630000160B3E02068016821F48061016072B636
:102640002068416981690091016841F400710AE0E4
:1026500041F40061016072B62068416981690091AE
:10266000016821F48061016062B697E0032865D8B3
:1026700001280CD0022843464FF00002494620466C
:1026800000960BD001F0A0FBA8BB0CE091E0324615
:102690004146204601F03EFC68BB72E001F094FB2D
:1026A00048BB72B633E02068016821F480610160A4
:1026B00072B620680069616A0870606A401C6062D6
:1026C000208D401E2085608D401E60853D4846F26D
:1026D000A8110068B0FBF1F0C0EBC00000EB800077
:1026E0000090401E009007D020684069C04340071A
:1026F0000DD50098F5E727E044F8305F6773A573C0
:10270000206940F02000206162B625731CE020683B
:10271000016841F40071016020680069616A087015
:10272000606A401C6062218D491E2185618D491EB1
:10273000618562B621680969017026E0324641462A
:10274000204601F0E7FB18B1012007B0BDE8F08F8B
:1027500020680069616A0870606A401C6062208DB0
:10276000401E81B22185608D401E608520684269CF
:10277000D243520712D4032903D1016821F48061A6
:10278000016020680069616A0870606A401C6062CC
:10279000208D401E2085608D401E6085208D002884
:1027A0007FF464AF84F83D7084F83E5084F83C5068
:1027B000CBE70220C9E70000020010000000FFFF85
:1027C00004000100700000202DE9FF4F83B09A46FD
:1027D000DDE9119793460446DDF84080FFF766FD7A
:1027E000054694F83D0020287FD119230122404955
:1027F0002046009501F0E8FA002876D194F83C00D4
:10280000012872D0012084F83C0020680168C907C3
:1028100003D1016841F0010101602068016821F4E1
:1028200000610160212084F83D00402084F83E00D2
:1028300000262664C4F82480A4F82A90608D2085A0
:102840002C48E062CDE9007553465A46204604996B
:1028500001F03AFA70B930E02A463946204601F0D4
:1028600091FB58B1206C042804D12068016841F420
:1028700000710160012007B0BDE8F08F606A216837
:1028800000780861606A401C6062218D491E89B22F
:102890002185628D521E628522685369DB435B0786
:1028A0000BD469B100781061606A401C6062208DB1
:1028B000401E2085608D401E6085208D0028CBD174
:1028C0002A463946204601F053FA0028CAD154F866
:1028D0003D0B016841F400710160202004F81E09DD
:1028E000E67766770020C6E7FFE70220C3E700002F
:1028F000020010000000FFFF30B585B000210091FC
:102900000191029103911E4D03681E4C1221032276
:102910001D48AB4216D1A36943F00803A361A36924
:10292000039203F008030493C023CDE90031694604
:10293000FFF7BAFBE06940F40010E061E06900F4E1
:10294000001019E0114DAB4217D1A36943F0080301
:10295000A361A369039203F0080304934FF4406357
:10296000CDE900316946FFF79FFBE06940F4800044
:10297000E061E06900F48000049005B030BD000023
:102980000054004000100240000C0140005800407C
:102990000248816802781144816070476400002019
:1029A000074810B5016841F010010160032000F0F4
:1029B00075F80F2000F006F800F024F8002010BD94
:1029C0000020024070B50D4D04464FF47A7128780E
:1029D000B1FBF0F00A490968B1FBF0F000F0B8FB78
:1029E00048B9102C07D200222146501E00F036F8BC
:1029F00000206C6070BD012070BD000064000020EC
:102A0000700000200C4808B5816941F00101816126
:102A1000816901F001010091C16941F08051C161FA
:102A2000C06900F0805000900448416821F0E061E6
:102A300041F00071416008BD0010024000000140FB
:102A4000002809DB00F01F020121914040098000AD
:102A500000F1E020C0F8001170470000F0B40E4B08
:102A60001B680C46C3F30223C3F10705042D00D9EC
:102A70000425191D072901D2002300E0DB1E0126D1
:102A800006FA05F1491E214099409E40761E1640E7
:102A90003143F0BC02F0CFB80CED00E0064900F085
:102AA000070208684FF6FF03184040EA0220034A75
:102AB00010430860704700000CED00E00000FA05CC
:102AC00010B501460020234C012922D0022939D01B
:102AD00010291DD161682268D20119D51E48C1F3A1
:102AE0008342C903805C0AD561681B4AC1F3404137
:102AF000921E515C194AB2FBF1F1484301E01849BA
:102B000048436168490203D440000321B0FBF1F05F
:102B100010BD226AC2F30121012903D1920701D518
:102B2000C80310BD022905D1626A920702D549F691
:102B3000404010BD0329FCD121688903F9D54FF22B
:102B4000244010BD00F02AF96168C1F38131491CAD
:102B50004900DBE700100240CE5A000800127A005C
:102B600000093D002DE9F84305460078354CC007C3
:102B700054D0E0690026C00008D4E06940F08050DD
:102B8000E061E069012600F0805000902E48016865
:102B9000C90512D40168804641F480710160FFF7D5
:102BA00085FB074605E000BFFFF780FBC01B6428DC
:102BB00023D8D8F80000C005F6D5206A10F440707C
:102BC00021D0A98801F4407181421CD0206A1F499C
:102BD000012220F440700A6000220A602062C007CF
:102BE00011D0FFF763FB074641F2883808E000BFC9
:102BF000FFF75CFBC11B414502D90320BDE8F88308
:102C0000206A8007F4D5206A696820F44070084380
:102C100020621EB1E06920F08050E06128788007D2
:102C200005D56068A96820F44040084360602878B2
:102C3000C00605D56068E96820F48000084360603C
:102C40000020DBE7001002400070004040044242D8
:102C50002DE9F0470F46050061D0434E306800F083
:102C60000700B84209D2306820F0070038433060CE
:102C7000306800F00700B84251D128683B4C81070A
:102C800012D5400703D5606840F4E06060602878A2
:102C9000000703D5606840F4605060606068A96810
:102CA00020F0F000084360602878C00728D06868EA
:102CB000012810D02168022810D0890700292EDAB7
:102CC000616821F0030101436160FFF7EFFA80467C
:102CD00041F288390DE021688903EFE78901EDE7CA
:102CE000FFF7E4FAA0EB0801494502D90320BDE84B
:102CF000F0876068696800F00C00B0EB810FEFD1DD
:102D0000306800F00700B8420BD9306820F00700A7
:102D100038433060306800F00700B84201D001202D
:102D2000E5E72878400705D56068E96820F4E060A9
:102D3000084360602878000706D56068296920F498
:102D4000605040EAC100606000F038F86168084AED
:102D5000C1F30311515CC840064908600648006889
:102D6000FFF730FE0020C2E70020024000100240C2
:102D7000DE5A000870000020680000200448054961
:102D800000684968044AC1F30221515CC840704799
:102D90007000002000100240EE5A00080448054967
:102DA00000684968044AC1F3C221515CC8407047B9
:102DB0007000002000100240EE5A00080E4A5168D0
:102DC0000E4801F00C03042B11D0082B0FD10C4836
:102DD000C1F38343C903C05C0AD55168084AC1F3F3
:102DE0004041921E515C054A5043B0FBF1F07047E0
:102DF00004494843704700000010024000127A0066
:102E0000BC5A000800093D002DE9F84F040070D0BD
:102E10002078C04DC00749D06868C0F38100012800
:102E200007D06868C0F38100022809D16868C00330
:102E300006D52868800339D560680028E7D035E0DA
:102E40006068B0F5803F0BD010B1B0F5A02F11D065
:102E5000286820F480302860286820F4802002E070
:102E6000286840F480302860606890B1FFF71EFA4F
:102E700006460AE0286840F480202860F0E700BF9A
:102E8000FFF714FA801B642873D828688003F7D5ED
:102E90000CE0FFF70BFA064605E000BFFFF706FA65
:102EA000801B6428F0D828688003F7D420789A4ED5
:102EB00080074FF001094FF0000839D5686810F01D
:102EC0000C0F07D06868C0F38100022809D1686838
:102ED000C00306D42868800714D52069012808D1CA
:102EE00010E02069B0B1C6F80090FFF7DFF907469F
:102EF00005E00AE1FFF7DAF9C01B0228C4D8286808
:102F00008007F7D52868616920F0F80040EAC10021
:102F100028600DE0C6F80080FFF7C8F9074604E016
:102F2000FFF7C4F9C01B022823D828688007F7D40C
:102F3000207800072CD57948A169D9B1C0F8009054
:102F4000FFF7B4F9074604E0FFF7B0F9C01B022809
:102F50000FD8686A8007F7D571484FF4FA510068B6
:102F6000B0FBF1F0009000BF0098411E0091FAD232
:102F70000EE080E0C0F80080FFF798F9074604E013
:102F8000FFF794F9C01B022875D8686A8007F7D448
:102F90002078400760D5E8690027C00008D4E869B8
:102FA00040F08050E861E869012700F0805000900F
:102FB0005C480168C90513D40168834641F48071F7
:102FC0000160FFF773F9824606E000BFFFF76EF974
:102FD000A0EB0A0064284ED8DBF80000C005F5D548
:102FE000E06801280AD008B1052813D0286A20F02B
:102FF00001002862286A20F0040002E0286A40F0FC
:1030000001002862E06841F2883B98B1FFF74EF971
:1030100082460BE0286A40F004002862EEE700BF19
:10302000FFF744F9A0EB0A0159455AD8286A8007EE
:10303000F6D50CE0FFF73AF9824605E0FFF736F9DE
:10304000A0EB0A0159454CD8286A8007F6D41FB175
:10305000E86920F08050E861E06988B36968C1F3ED
:103060008101022944D00228C6F8608004D0FFF70D
:103070001DF9044638E034E0FFF718F9074604E08C
:10308000FFF714F9C01B02282BD828688001F7D459
:10309000206AB0F5803F05D16868A16820F400304F
:1030A00008436860D4E908010843696821F4741191
:1030B00008436860C6F86090FFF7F8F8044606E039
:1030C00025E000BFFFF7F2F8001B022809D82868A6
:1030D0008001F7D51BE000BFFFF7E8F8001B0228CE
:1030E00002D90320BDE8F88F28688001F4D40EE0EF
:1030F0000128F7D06868226A00F48031914204D137
:10310000616A00F47010884201D00120EAE70020D3
:10311000E8E7000000100240000042428004424202
:103120007000002000700040084800F13C02016A75
:10313000B1F57A7F03D303219173002103E0927BE1
:10314000022A01D1491C01627047000010000020D2
:1031500010B5401EB0F1807F01D3012010BD4FF0AB
:10316000E02460610F21601701F065FD0020A0617F
:1031700007202061002010BD10B5FFF7D5FF10BD5E
:1031800070B590F83C20012A26D0012480F83C40FC
:10319000022280F83D2003685A689D6822F070067C
:1031A0000A6832435A600D4B02689A4208D0B2F165
:1031B000804F05D00A4B9A4202D00A4B9A4204D162
:1031C000496825F080031943916080F83D40002153
:1031D00080F83C10084670BD022070BD002C0140F4
:1031E000000400400008004010B5040003D094F82B
:1031F0003D0010B107E0012010BD002084F83C0024
:10320000204600F01FF8022084F83D00211D2068B0
:1032100001F094FA012084F8460084F83E0084F816
:103220003F0084F8400084F8410084F8420084F8AC
:10323000430084F8440084F8450084F83D000020F1
:1032400010BD000008B5124A01681248914207D12A
:10325000816941F400618161806900F4006014E0DB
:10326000B1F1804F0AD00C4A91420FD1C16941F0AF
:103270000401C161C06900F0040006E0C16941F0C9
:103280000101C161C06900F00100009008BD0000AB
:10329000002C0140001002400008004090F83D1052
:1032A000012901D001207047022180F83D100068FB
:1032B0000B49884208D0B0F1804F05D009498842B7
:1032C00002D00949884204D1816801F0070106292A
:1032D00003D0016841F00101016000207047000047
:1032E000002C0140000400400008004070B5044676
:1032F00090F83C000025012817D0012684F83C6096
:10330000022084F83D002068826822F0770222F4CF
:103310007F4282600868502838D00DDC20284FD0CA
:1033200005DC90B3102811D14AE0022070BD30288E
:1033300046D040280AD13BE060282FD070280DD01D
:10334000B0F5805F03D0B0F5005F12D0012584F89E
:103350003D60002084F83C00284670BDCB68D1E970
:103360000121206801F033FA2068816841F077017B
:1033700009E0CB68D1E90121206801F028FA206832
:10338000816841F480418160E1E719E0CA684968D9
:10339000206801F0D1FA5021206806E0CA68496827
:1033A000206801F0DAFA6021206801F01AFACEE70D
:1033B000CA684968206801F0BFFA40212068F4E734
:1033C000226801461046F0E700B585B00021009163
:1033D00001910291039100680B49884212D10B4878
:1033E000816941F0080181618069694600F0080047
:1033F00004904FF400700090022001900390044864
:10340000FEF752FE05B000BD00080040001002406B
:10341000000C014070B5044690F83C0000260D46B3
:1034200001280FD0012084F83C006AB1042A1DD085
:10343000082A2FD00C2A3FD00126002084F83C0017
:10344000304670BD022070BD206801F0D3F92068BD
:10345000816941F0080181612068816921F00401DE
:103460008161206881692A69114311E0206801F0B7
:10347000E9F92068816941F400618161206881690E
:1034800021F480618161206881692A6941EA022111
:103490008161D2E7206801F001FA2068C16941F03A
:1034A0000801C1612068C16921F00401C16120687F
:1034B000C1692A69114311E0206801F01BFA2068F4
:1034C000C16941F40061C1612068C16921F4806172
:1034D000C1612068C1692A6941EA0221C161ACE782
:1034E00010B5040003D094F83D0010B107E00120AE
:1034F00010BD002084F83C00204600F01EF8022099
:1035000084F83D00211D206801F018F9012084F89D
:10351000460084F83E0084F83F0084F8400084F8B8
:10352000410084F8420084F8430084F8440084F8A1
:10353000450084F83D00002010BD704710B50446DA
:10354000022249B104290ED0082913D094F8410071
:10355000012816D0012010BD94F83E000128F9D1B1
:1035600084F83E200FE094F83F000128F2D184F85F
:103570003F2008E094F840000128EBD184F8402077
:1035800001E084F841200122206801F013F90F497D
:103590002068884203D1426C42F4004242642068B1
:1035A000884208D0B0F1804F05D00949884202D046
:1035B0000849884204D1816801F00701062903D037
:1035C000016841F001010160002010BD002C0140A4
:1035D000000400400008004070477047F8B50168DB
:1035E00004460868CA684B6910F00F0F4FF00005D9
:1035F00059D003F0010602F49077374365D0C10734
:1036000005D0D10503D5616C41F00101616441072A
:1036100005D5D90703D0616C41F0020161648107CF
:1036200005D5D90703D0616C41F00401616401073D
:1036300007D502F02001314303D0616C41F008014D
:103640006164616C00293AD0800604D5900602D5E9
:10365000204601F0C3F920684069616CC0F3801016
:10366000090700D460B3204601F091F92068406951
:10367000400621D52068143050E8001F21F0400199
:1036800040E80012002AF5D1E06BA8B16D49416312
:10369000E06BFEF77FFC002811D0E06B416B01B0BE
:1036A000BDE8F040084783060FD593060DD52046A8
:1036B000BDE8F84001F092B92046FFF78EFFF8BD53
:1036C0002046FFF78AFF6564F8BD266B2023012E94
:1036D0007CD1C6067AD5D60678D5086848680090A9
:1036E00048694FF00206400640D5E16B0868406823
:1036F0000004000CE8D0A28D8242E5D9E0858869FB
:1037000020282DD020680C3050E8001F21F4807153
:1037100040E80012002AF5D12068143050E8001F5C
:1037200021F0010140E80012002AF5D12068143090
:1037300050E8001F21F0400140E80012002AF5D1B6
:1037400084F84230256320680C3050E8001F21F0D7
:10375000100140E80012002AF5D1E06BFEF7F6FBFD
:103760006663A08DE18D401A81B22AE0A08DE18DC3
:10377000401A81B2E08D0028A6D00029A4D022688A
:103780000C3252E8000F20F4907042E80007002F3E
:10379000F5D12068143050E8002F22F0010240E8F3
:1037A0000027002FF5D184F84230256320680C30C3
:1037B00050E8002F22F0100240E80023002BF5D142
:1037C00066632046FFF708FFF8BDFFE705062BD527
:1037D000150629D594F841002128F5D1A068B0F547
:1037E000805F01D12069B0B1206A411C216221684B
:1037F00000784860E08C401E0004000CE084E3D1B7
:103800002068C16821F08001C1602068C16841F072
:103810004001C160D8E7206A0088C0F30800486012
:10382000206A801C2062E5E74006CDD55006CBD546
:10383000CA68204622F04002CA6084F8413000F095
:1038400009F9C1E77F49000870B5040004D094F875
:103850004100002510B106E0012070BD84F8405001
:10386000204600F023F8242084F841002068C16835
:1038700021F40051C160204601F012F9206801696D
:1038800021F4904101612068416921F02A014161E0
:103890002068C16841F40051C1606564202084F84B
:1038A000410084F842006563002070BD30B585B0EA
:1038B00000240094019402940394006818498842FB
:1038C0002CD11848816941F480418161816901F4FA
:1038D00080410491816941F0040181618069124D48
:1038E00000F0040004904FF400700090022001905A
:1038F0000320039069462846FEF7D6FB2815CDE93C
:103900000004694628460294FEF7CEFB00220121FE
:103910002520FFF7A3F82520FFF792F805B030BD6A
:1039200000380140001002400008014090F8423089
:10393000202B01D00220704721B11AB1002303636C
:1039400001F00AB90120704770B500681449884237
:1039500024D1144CE178462916D01348134D4C2934
:1039600002D06C2912D105E001228021FEF799FCDA
:10397000072004E000228021FEF793FC082020703D
:10398000FEF794FC286001E001F080F9BDE870408A
:1039900004490122C91C0648FFF7C8BF70BD0000DA
:1039A0000038014010000020000801400400002001
:1039B000240200202DE9F843044690F8410098467F
:1039C00016460D46202802D00220BDE8F88385B1B6
:1039D0007EB100206064212084F84100FEF766FC7F
:1039E000A6848146E684A0682027B0F5805F02D0D7
:1039F00003E00120E9E7206910B12E4600250EE022
:103A000000260CE08021204601F0C1F8A8B9C6B11B
:103A100016F8010B21684860E08C401EE084E08CC1
:103A20004B464FF00002CDF800800028EAD14FF05D
:103A30004001204601F0ABF840B184F8417003200A
:103A4000C3E735F8020BC0F30800E3E784F84170E0
:103A50000020BAE77047000070B5244E01222021F3
:103A60003046FEF71EFC224D002029684862286877
:103A7000416A0A29FCD3002220213046FEF711FCBE
:103A8000FEF714FC1B4CE06210213046FEF7FCFBF5
:103A900028B9FEF70BFCE16A401A1428F4D3286811
:103AA000406A6060FEF702FCE06210213046FEF7DB
:103AB000EBFB28B1FEF7FAFBE16A401A3228F4D397
:103AC0002868406AA0606168401A01F027FE01F092
:103AD000D5FC094A094B01F0D3FB4FF0FF3201F04E
:103AE000A6FF01F093FBE06070BD000000080140FC
:103AF00094010020100000209CC420B07268A13FF7
:103B0000FEE701684A69D24352050FD46FF4806220
:103B10004A61002140F8301F2022427381730269FC
:103B200042F00402026101730120704700207047D7
:103B3000F8B50446C06A1E460D461746082807D049
:103B4000012805D010F5803F02D0206B122804D147
:103B50002068016841F480710160134600224FF033
:103B600001112046009600F02FF940B1206800684E
:103B7000C00502D54FF4007020640320F8BD206911
:103B8000B0F5804F0ED00620216800EAD51040F035
:103B9000F000086133463A460B49204600F05CF9D4
:103BA00078B902E005F0FE0000E0E8B221680861A3
:103BB000054933463A46891F204600F04DF9002852
:103BC000DCD00120F8BD0000080001002DE9F84F0D
:103BD0000446006889460B9D01689846174641F4E3
:103BE000806101602068016841F480710160009586
:103BF0004FF0011B0022594620460A9B00F0E4F8D2
:103C00004FF4007A40B120680068C00501D5C4F8BF
:103C100040A00320BDE8F88F216809F0FE0008618C
:103C20002B46284920460A9A00F016F9F0BB206876
:103C30004169806900902A4620460A9900F0A2F95D
:103C400040B1206C04283AD12068016841F4007129
:103C5000016034E0FEB2B8F1010F09D02168380AE2
:103C600008612A4620460A9900F08CF90028E8D11C
:103C7000206806612A4620460A9900F083F9002848
:103C8000DFD12068016841F4807101600095002255
:103C9000594620460A9B00F097F80028B3D12168C6
:103CA00009F0FF0040F00100086100E007E02B464A
:103CB000044920460A9A00F0CFF80028AAD0012033
:103CC000A8E70000020001002DE9F843044600685F
:103CD0000D46DDE9089701689846164641F4807163
:103CE00001604B4600224FF001112046009700F082
:103CF0006BF848B120680068C00502D54FF4007029
:103D000020640320BDE8F883216805F0FE00086107
:103D10003B464A461549204600F09EF888B920687F
:103D20004169806900903A464946204600F02AF9E8
:103D300048B1206C042804D12068016841F4007166
:103D400001600120DEE7F5B2B8F1010F09D021686A
:103D5000300A08613A464946204600F013F9002827
:103D6000E7D1206805610020CCE7000002000100D7
:103D700070B516460D4604461EE02046FFF7C1FE0C
:103D800008B1012070BD681C16D0FEF78FFA801BA9
:103D9000A84200D885B920684069C04340070BD5C8
:103DA000002044F8300F20216173A073216941F095
:103DB000200121612073E4E720684069C043400787
:103DC000DBD4002070BD00002DE9F047984617466F
:103DD0000D460446C1F30746DDF820902AE000BFF7
:103DE000B8F1FF3F26D0FEF761FAA0EB090141458B
:103DF00002D8B8F1000F1DD12068012E16D08069BD
:103E000025EA00000004000C12D00020B84211D1B5
:103E1000002044F8300F20216173A073216941F024
:103E20002001216120730120BDE8F0874069E7E7A8
:103E30000120EBE72068012E0AD0806925EA000006
:103E40000004000C06D00020B842C9D00020EBE7E7
:103E50004069F3E70120F7E72DE9F0479846164659
:103E60000D4604464FF000094FF0200AC1F3074702
:103E700023E020684069C043400515D420680168EC
:103E800041F40071016021686FF480604861C4F8FA
:103E9000309084F83DA084F83E90216C41F00401FC
:103EA000216484F83C9021E0701C06D0FEF7FEF9F6
:103EB000A0EB0800B04203D816B1012F1FD021E0BB
:103EC0002068012F15D0806925EA00000004000C4D
:103ED00018D000BF44F8309F84F80DA084F80E90ED
:103EE000216941F02001216184F80C900120BDE896
:103EF000F087406925EA00000004000CEAD1206840
:103F0000406901E02068806925EA00000004000C97
:103F1000AFD1ECE72DE9F041002590460E4604466E
:103F2000202728E04069C043C0060CD454F8301B59
:103F30006FF01000486144F810596777A577206A40
:103F40002062257714E0FEF7B1F9A0EB0800B0423B
:103F500000D886B920684069C04340060BD544F8B4
:103F6000305F6773A573206940F0200020612573DE
:103F70000120BDE8F08120684169C9434906D1D4D8
:103F80000020F6E770B516460D4604461EE02046B2
:103F9000FFF7B7FD08B1012070BD681C16D0FEF711
:103FA00085F9801BA84200D885B920684069C043C4
:103FB00000060BD5002044F8300F20216173A07358
:103FC000216941F0200121612073E4E72068406904
:103FD000C0430006DBD4002070BD00002DE9F04393
:103FE000824C87B06078012811D020780025804E5F
:103FF0004FF47A784FF4FA6704F13C09092872D239
:10400000DFE800F0CF1523356AA272829B00002200
:1040100011467848FDF7F2FA77A17648FDF713FBD1
:10402000012200217348FDF7E9FA78A1DAE00022C5
:1040300011467048FDF7E2FA79A16BE025706D48F2
:10404000FDF781FA07B0BDE8F08399F911100091EE
:1040500099F9123099F9132076A101A8FCF7C4F858
:10406000002211466348FDF7C9FA01A942E05F4802
:10407000343090F90010009190F9013090F902204D
:1040800074A101A8FCF7B0F8002211465948FDF7C9
:10409000B5FA01A95748FDF7D6FA99F81010012989
:1040A00013D073A101A8FCF79FF801220021514809
:1040B000FDF7A4FA01A94F48FDF7C5FAFEF7F6F897
:1040C0003168401AB842B9D2BCE799F913206DA102
:1040D00001A8FCF789F8E8E7002211464548FDF7FA
:1040E0008DFA6EA106E05CE0002211464148FDF722
:1040F00085FA6FA13F48FDF7A6FA012200213D484D
:10410000FDF77CFA6FA1D6E7002211463948FDF78A
:1041100075FA71A13748FDF796FA0122002135485A
:10412000FDF76CFA67A13348FDF78DFAFEF7BEF88C
:104130003168401A404581D284E7002211462D485B
:10414000FDF75CFA69A1E5E7E06801F097F902463E
:104150000B466BA101A8FCF747F800221146254841
:10416000FDF74CFA01A92348FDF76DFA206B01F029
:1041700085F902460B4667A101A8FCF735F8012234
:1041800000211C48FDF73AFA01A91A48FDF75BFA2D
:10419000FEF78CF83168401A42F21071884292D2D0
:1041A00050E7606A01F06AF902460B465EA101A879
:1041B000FCF71AF8002211460E48FDF71FFA01A974
:1041C0000C48FDF740FAA06A01F058F902460B4688
:1041D0005AA101A8FCF708F8012200210548FDF7C3
:1041E0000DFA01A90348FDF72EFA2BE71000002075
:1041F000040000207C020020202021215741524E43
:10420000494E472121202020000000002054555213
:104210004249444954592048494748200000000079
:10422000202046454544494E47202E2E2E20202052
:10423000000000005365743A20253032643A25307E
:1042400032643A2530326420202020202020202093
:104250000000000054696D653A20253032643A252B
:104260003032643A253032642020202000000000E3
:104270004E6F2073657420616C61726D2020202068
:1042800000000000416C61726D3A20253032643AC2
:1042900030303A30302020202020000054696D65F5
:1042A0002773206265656E2073657420000000002E
:1042B000416C61726D27732064656C657465642060
:1042C000000000002020202020202020202020206E
:1042D000202020200000000020204C696768742006
:1042E000776173206F6E20200000000020204C6951
:1042F00067687420776173206F6666200000000095
:10430000446973743A20252E316620636D20202085
:1043100000000000466565643A20252E306625259C
:10432000202020202020000054656D703A20252E8A
:104330003166204320202020202020005475726206
:104340003A20252E3166204E545520202020202052
:10435000000000003EB5002410480094019402942F
:104360000D498460016004730475012505614FF4F3
:1043700060214460C161FDF717FC08B172B6FEE729
:104380000095CDE9015469460448FDF78BFB0028F0
:1043900001D072B6FEE73EBD00240140740000204B
:1043A0002DE9F04786B0002452480094019402940D
:1043B0000394816941F010018161816901F010016C
:1043C0000491816941F020018161816901F020013E
:1043D0000491816941F004018161816901F0040166
:1043E0000491816941F0080181618069DFF80881E9
:1043F00000F008004FF40055049000222946404682
:10440000FDF74FFFDFF8F4900022E0214846FDF76A
:1044100048FFDFF8ECA0AF00002239465046FDF718
:1044200040FF0095022601250396CDE90154694617
:104430004046FDF739FE1020CDE9000469464846A4
:104440000294FDF731FEE020CDE90005CDE90246FA
:1044500069464846FDF728FEDFF8A8804FF48570CE
:10446000CDE90008694602955046FDF71DFE00970C
:104470000396CDE9015469465046FDF715FE0097B5
:10448000CDE9018569464846FDF70EFE30200090D3
:104490001D48CDE9010569465046FDF705FE00229D
:1044A00011460720FEF7DAFA0720FEF7C9FA0022C4
:1044B00011460920FEF7D2FA0920FEF7C1FA0022C0
:1044C00011460A20FEF7CAFA0A20FEF7B9FA0022BE
:1044D00011461720FEF7C2FA1720FEF7B1FA0022A4
:1044E00011462820FEF7BAFA2820FEF7A9FA06B0EE
:1044F000BDE8F087001002400010014000080140B4
:10450000000C0140000021100000111010B586B011
:1045100000241748009401940294039404941349CE
:10452000059401604721C0E901144FF6FE71C0E90E
:10453000031444618461FEF757FE08B172B6FEE7CA
:104540004FF48050009069460948FEF7CFFE08B14D
:1045500072B6FEE7049404A905480594FEF710FE20
:10456000002801D072B6FEE706B010BD002C014055
:104570004C01002010B586B0002416480094019428
:104580000294039404944FF0804105940160472104
:10459000C0E901144FF6FF71C0E903148461FEF70E
:1045A00023FE08B172B6FEE74FF4805000906946D2
:1045B0000848FEF79BFE08B172B6FEE7049404A912
:1045C00004480594FEF7DCFD002801D072B6FEE732
:1045D00006B010BD9401002010B58EB000240794E1
:1045E000089409940A940B941C2168460C94FBF7D8
:1045F00048FF1E481C4901608F21C0E9011442F2A6
:104600000F71C0E903148461FEF7EEFD08B172B6C4
:10461000FEE74FF48050079007A91448FEF766FEA6
:1046200008B172B6FEE71148FEF75AFF08B172B63C
:10463000FEE70B940BA90D480C94FEF7A1FD08B101
:1046400072B6FEE76020CDE9000402940C226946B0
:1046500006480494FEF7DEFE08B172B6FEE7034892
:10466000FEF7B2FE0EB010BD00080040DC010020D5
:10467000FEE7FEE77047000070B5002506462C46B1
:104680000FE00A48FDF7E8FB0A210848FDF746FB62
:104690000648FDF785FA05440448FDF73DFC641C17
:1046A000E4B2B442EDD3B5FBF6F070BD7400002067
:1046B000704710B5FEF76CF9BDE81040FEF75CBD21
:1046C00030B593B028216846FBF7DBFE14210AA819
:1046D000FBF7D7FE002501200F95109511950104D9
:1046E00012958DE8230004904FF4E010CDE90810F6
:1046F000022407946846FEF787FB08B172B6FEE70E
:104700000AA90F2081E831004FF48060CDE90D0542
:1047100002210AA8FEF79CFA08B172B6FEE74FF430
:10472000004011900F940FA8FEF71CFA002801D04A
:1047300072B6FEE713B030BD70470000F0B50268F6
:10474000194B1A4C1A4D4FF08047984205D0B84289
:1047500003D0A04201D0A84203D122F070064A68DB
:104760003243984205D0B84203D0A04201D0A842BB
:1047700003D122F44074CA6822434C6922F08002BB
:10478000224302608A68C2620A688262984201D14A
:1047900009690163012141610169C90703D0016908
:1047A00021F001010161F0BD002C01400004004036
:1047B0000008004010B501F01F030121046A994070
:1047C0008C430462016A9A401143016210BD10B526
:1047D000846842EA032224F47F440A43224382602D
:1047E00010BD826822F070020A4342F00701816026
:1047F0007047000030B5036A026A22F001020262CB
:104800004268846924F073050C682C4323F0020588
:104810008B682B430A4DA8420BD123F00805CB68C7
:1048200022F440722B434D6923F0040315438A6937
:104830002A434260846149684163036230BD0000DD
:10484000002C014030B5026A036A23F010030362B2
:10485000436884690D6824F4E64444EA05248D68BD
:1048600022F0200242EA05120B4DA8420ED1CD687B
:1048700022F0800242EA05124D6923F4406343EAC4
:1048800085038D6922F0400243EA85034360846119
:1048900049688163026230BD002C014030B5036A73
:1048A000026A22F4807202624268C46923F40073CF
:1048B00024F073050C682C438D6843EA05230C4DE6
:1048C000A8420ED1CD6823F4006343EA05234D6965
:1048D00022F4405242EA05128D6923F4806342EAD1
:1048E00005124260C4614968C163036230BD0000C3
:1048F000002C014030B5046A026A22F48052026240
:104900004268C3690D6823F4E64343EA05238D68D2
:1049100024F4005444EA0534064DA84204D14D69FC
:1049200022F4804242EA85124260C3614968016410
:10493000046230BD002C014010B5036A046A24F003
:1049400001040462846924F0F00444EA021423F0B0
:104950000A020A438461026210BD10B5036A046A48
:1049600024F010040462846923F0A00324F470444A
:1049700044EA023243EA01118261016210BD10B5BE
:10498000406A0021C185C184FEF727FE10BD016881
:104990000C3151E8002F22F4907241E80023002BE3
:1049A000F5D10168143151E8002F22F0010241E8ED
:1049B0000023002BF5D1016B012909D101680C31CD
:1049C00051E8002F22F0100241E80023002BF5D11E
:1049D000202180F8421000210163704708B590F84B
:1049E0004210222901D0022008BD82684FF4805372
:1049F0009A4201D1016921B1816A9A421BD04AB120
:104A00000AE00268816A5268C2F308020A80816A79
:104A1000891C08E0026972B10268526802F07F02E4
:104A20000A70816A491C8162C18D491E0904090C02
:104A3000C18503D01BE002685268F1E70168CA68CB
:104A400022F02002CA600168CA6822F48072CA603B
:104A500001684A6922F001024A61202180F842106F
:104A600000214163026B012A03D0FEF76DFF002095
:104A700008BD016301680C3151E8002F22F01002DB
:104A800041E80023002BF5D101680A68D20602D55F
:104A90000A6849680091818DFEF79EFDE7E70000F6
:104AA00070B5044600680169E26821F44051114381
:104AB00001612169A0680843616908432168CA68E7
:104AC00041F20C639A430243CA6020684169A269BB
:104AD00021F44071114341611E492068884202D18E
:104AE000FEF75CF901E0FEF749F900EBC00101EBCC
:104AF0000012606864218000B2FBF0F3B3FBF1F3B5
:104B00006FF018067343B2FBF0F5B2FBF0F605EB5D
:104B10008305322303EB0515B5FBF1F5B6FBF1F682
:104B200005F0F00505EB0615B2FBF0F6B2FBF0F070
:104B3000B0FBF1F06FF01802504306EB800003EB7E
:104B40000010B0FBF1F0216800F00F0028448860ED
:104B500070BD00000038014081628285C28500215D
:104B60004164222180F84210016921B10168CA68BC
:104B700042F48072CA6001684A6942F001024A61E7
:104B80000068C16841F02001C160002070472DE934
:104B9000F843984617460D460446089E24E0701CCC
:104BA00022D0FDF783FBA0EB0800B0421AD8CEB1AB
:104BB0002068C168490717D5802D15D0402D13D026
:104BC0000168C94309070FD40168002540680090B7
:104BD0002046FFF7DCFE0820606484F84050012086
:104BE000BDE8F8830320FBE72068006835EA000091
:104BF00004D00020B842D2D00020F1E70120F9E72C
:104C00000148FEF7EBBC000024020020FEE749004B
:104C100050EAC12018BF04204A0D18BF40F001001F
:104C200040F2FF72B2EB515F08BF40F00200012872
:104C300008BF052070470907090E002804DB00F1B2
:104C4000E02080F80014704700F00F0000F1E02031
:104C500080F8141D704730380A2801D201207047AF
:104C60000020704700F00F01000900EB800001EB0D
:104C7000400070470A2190FBF1F201FB120290FB09
:104C8000F1F002EB0010C0B27047000010B5054C07
:104C90000120A168887304490870FDF707FB2060B4
:104CA00010BD000004000020100000201CB50E4CB8
:104CB000A068807B18B14FF47A7000F0FBF8A1680F
:104CC000C87B02280ED151F8110F00908A88ADF8E8
:104CD000042089798DF806100199FCF72FFEA16850
:104CE0000020C8731CBD0000040000202DE9FF4710
:104CF0000646FDF7DBFA3F4C6168401AFA281AD3E2
:104D0000FDF7D4FA02213C4D4FF001086060B6F582
:104D1000807F12D00027022E1CD0202E4CD0102EC7
:104D200055D0082E07D12878F0B303285ED02F7015
:104D3000FDF7BCFA2060BDE8FF87A068C27B22B106
:104D4000C17380F81080042051E080F80E8085F84F
:104D50000080EDE70DF10C09CDE900984FF47A766B
:104D60000296A06801230F220068D021FDF7FEFB08
:104D70009DF80C00CDF8009020F001008DF80C009B
:104D8000CDE90186A06801230F220068D021FDF73C
:104D90001BFD4FF400511948FDF77BFAA06880F81D
:104DA0000E8085F8008000E01EE0FDF77FFA2060AD
:104DB000A068C7730774BEE7A06880F80F80C27C44
:104DC000521C52B2C274182A0CDBC7740AE0A068E5
:104DD00080F80F80C27C521E52B2C274002A01DADF
:104DE0001722C2742970A3E7032000E00520287071
:104DF0009EE7000004000020100000200010014089
:104E000070B5184C86B0A0600068FCF791FDA068F2
:104E100081684068FEF792FB002000F025F8A0684A
:104E20000021012601748DF8101003A9CDE90016A8
:104E300005228DF80C204FF47A75029500683346F0
:104E40000E22D021FDF7C0FC04A8CDE90006029592
:104E5000A06801230F220068D021FDF7B5FC06B041
:104E600070BD00000400002010B5B42801DDB4209E
:104E700002E0002800DA002032214143092291FBA0
:104E8000F2F1A1F2E2414A4209498C68D4E90113E6
:104E9000096833B1042B06D0082B06D00A64A08120
:104EA00010BD4A63FBE78A63F9E7CA63F7E70000CE
:104EB0000400002010B5094CA068807B012808D0B0
:104EC000032805D10020FFF7CFFF0020A1688873D9
:104ED00010BD2D20FFF7C8FF0220F7E704000020D7
:104EE0002DE9F041124C134D134FA06AA84201DB8B
:104EF000A07860B100266670324640213846FDF742
:104F0000D0F9A06AA84200DAA670BDE8F0810120BD
:104F10006070FDF7CBF9A169401AB0F57A7FF4D340
:104F200040213846FDF7B5F9FDF7C0F9A061ECE77F
:104F30001000002000007A44000801402DE9F041F3
:104F40008AB0FDF7B3F9204CE169401A4EF66021B2
:104F500088422FD3206B00F091FA06460F46606A14
:104F600000F08CFA05468846A06A00F087FA0A46E7
:104F700004F1340191F9003091F901C091F9021066
:104F800004968DE82501CDE90571CDE907C30FA28F
:104F900064211648FBF73CF91448FBF753FA134910
:104FA00082B24FF47A73A1F16400FEF703FDFDF7BE
:104FB0007DF9E0610AB00449BDE8F0410B480122E7
:104FC000C91C6438FEF7B2BC10000020252E3166E3
:104FD0002C252E31662C252E30662C253032643A55
:104FE000253032643A253032640D0A0088020020F0
:104FF00008B5FDF7D5FCFFF763FBFFF7D1F937489C
:105000003549374E00240160C0E901640D14C0E940
:10501000034544618461C4610462FDF74DF908B140
:1050200072B6FEE7FFF772FAFFF794F92B482D49A5
:1050300054380160C0E90164C0E9034544618461FA
:10504000C4610462FDF738F908B172B6FEE7FFF7F4
:10505000C3FAFFF78FFA2548234901604FF4165130
:10506000C0E901140C21C460C0E904418461C46139
:10507000FEF7EAFB08B172B6FEE70220174900907E
:1050800010234E2201F5C270FCF767FA13494FF462
:1050900000435431164A01F59070FCF734FB154873
:1050A000FFF7AEFE11489038FEF7F8F800222021F5
:1050B0001148FDF7F6F800BFFFF7F8FD00F080F8A3
:1050C00000F040F800F01AF8FFF70AFFFEF786FF3D
:1050D000FFF734FFF0E7000000580040F800002020
:1050E000A086010000540040003801402402002046
:1050F000000C01404C0000200008014070B5FEF794
:10510000ABFC0E4CD4E90401064600F0E7FB054673
:105110003046E16800F0E2FB294600F03DFA084D18
:10512000294600F00FFB206310F1FF4F02D300204F
:10513000206370BDA842FCDD256370BD1000002017
:105140000000C84270B5C820FFF796FA00F0E6FAF2
:10515000134900F0F7FA134900F01EFA124900F063
:10516000B9F90546114900F0EDFA0446294608460A
:1051700000F0E8FA0E4900F0E5FA214600F0AEFB37
:105180000C4900F0A7F90C4910F1FF4F886202D3D7
:105190000020886270BD094A9042FBDD8A6270BDC2
:1051A0003333534000F07F450AD7233CA826A84359
:1051B0009A1961C4B8D439451000002000007A441F
:1051C00010B50548FCF77CFB0448FCF7D0FA02490F
:1051D0003439486210BD0000440000206C020020F9
:1051E00010B500290AD00878002807D0054878446F
:1051F000FBF72EFD002801D0002010BD02487844A6
:1052000010BD0000CE090000C609000021F00042D8
:10521000A2F16052B2F5801F01F0004328BFD2F125
:105220007F6C0BD95FEA001C43EAC20242EB50706C
:1052300018BF704728BF20F001007047B2F5801FEB
:10524000BCBF184670474FEA410C1CF5001F02D244
:10525000084600F03EBB70B500F0BCF800000089C5
:10526000FFF7F6BF4FF00040A0F580007047000048
:1052700002494FF0000000F0A8BB00BF0000F87F1B
:10528000DFF848C170B51CEA111E1EBF1CEA1315D9
:105290009EEA0C0F95EA0C0F00F06F8081EA030480
:1052A00023EA4C134EEAD47E21EA4C1141F48011DA
:1052B00043F48013AE44A1FB024CA0FB0365AEF1A6
:1052C0007F7E361955EB0C05A1FB034C4CF1000316
:1052D000A0FB021C16EB0C06654153F100030942CA
:1052E00018BF46F0010613F4007F0BD14FEA0331DB
:1052F0004FEA0530340341EA155140EA16506FF089
:1053000003020AE04FEAC3214FEAC520F40241EA52
:10531000555140EA56506FF0020202EB2E4201EB6B
:10532000025585EACE710AD05FEA440C18BF24F01A
:10533000004450F1000041F1000120EAD47040F235
:10534000FE7C624500D270BDA84214BF4FF080447D
:105350004FF04044002E08BF0024BEF1806FA8BF6C
:10536000A1F1C041BDE8704080F282804FF00000A2
:1053700001F1C04101F0004170479EEA0C0F0CEAB8
:10538000131518BF95EA0C0F06D04FF0000081EA04
:10539000030E0EF0004170BD00F01CF88900013EC4
:1053A00000F007B800F009B84FEA430C5FEA5C5C14
:1053B00008D081EA030100F05BB84FEA410C5FEAD4
:1053C0005C5CF6D14FF00000014970470000FF0718
:1053D0000000F87F0EF1020E2EF0030E5EF8046B53
:1053E000364205D4012A43EB030515F5001F12D8F8
:1053F000012841EB010C1CF5001F0CD80ED14FEA1F
:10540000D17C15F5001F0CEB4C0C0CF1020C08BF05
:105410004CEBD37C04E04FF0080C01E04FEAD37C66
:105420000CEB4C0526FA05F606F00706B6F1040C5F
:1054300006D20EEB860CBDE870404CF0010C6047C4
:10544000DFE80CF0090B02024FF000414FF00000C2
:10545000A1F5002170BD19461046012851EB010449
:1054600018BFD4F5001484BF002001F0004170BDC6
:105470000808A0F500114FEA3101704743004FEAD8
:10548000D30C4FEA3C0C43401FBF40070CF1605166
:1054900013F0FE4F70471CF0006F03D100200CF09A
:1054A000004170470CF0004343EA507010B540EAE9
:1054B000CC0000F0C8F900BF000000924FEA0001E4
:1054C000FFF7D6BF4FF000414FF00000A1F50021DB
:1054D0007047000090EA010F48BF81F0004100F1E1
:1054E0000482421A3CBF801A89184FEAD0524FF00A
:1054F0007F4C1CEA410FA2EBD15318BF9CEA026F0C
:1055000000F03B804FF0004C4CEA00204CEA0121B7
:1055100021FA03FC10EB0C0C1ED202F1FF325FEA01
:105520001C2040EBC25038BF70471CF07F0F4FEA81
:10553000400C18BFBCF17F4F38BF7047C3F1200348
:10554000994008BF20F00100BCF17F4F38BF704781
:10555000A0F1C04000F0BDB94FEA3C00000A40EBAA
:10556000C25028BF1CF0FF0F4FEA400CE6D018BF16
:10557000BCF17F4F38BF7047EAE79CEA026F05D065
:1055800010EA5C0F08BF00F00040704710B500F053
:105590005AF900BF64FBBE3E4FF47F0C1CEAD012E8
:1055A0001EBF1CEAD11392EA0C0F93EA0C0F00F015
:1055B000858090EA010F48BF42F4807240F4000CED
:1055C00041F400002CF07F4120F07F4000B5814283
:1055D000A2EB03020FF2081CACEB504EC0F100002E
:1055E0009EF800E04FEA4E0E00FB0EFC38BF49006B
:1055F0004FEA2C1C02F5FA020CFB0EF34FEACE1E0A
:105600004FEA112C4FEAC1210EEB635E42EB2242BE
:105610000EFB0CFC4FEA1C5300FB03114FEA112C4C
:105620004FEA01310EFB0CFC4FEADC4C00FB0C1185
:10563000C14228BF09184CEB03335DF804EB10EBB3
:10564000410143EBC250B2F57C0F38BF704729D5FA
:1056500012F0F00F1CBF00F1C04000F00040704796
:10566000008182838485868788898B8C8D8E8F913B
:105670009293959697999A9C9D9FA0A2A3A5A7A85F
:10568000AAACAEB0B2B3B5B7B9BCBEC0C2C5C7C98B
:10569000CCCED1D4D7D9DCDFE2E6E9ECF0F3F7FAEF
:1056A000FE0000004FEA400C0CF1807CBCF17E4F04
:1056B00028BF7047B0F1C04000F00BB990EA010F6D
:1056C0000CEAD11348BF42F48072624538BF63458B
:1056D00007D213F47F0F16D080EA010000F00040DB
:1056E000704710B500F0AFF8097EFC3E00F005B839
:1056F00080EA010000F00040704780EA010000F0FD
:10570000004000F0E6B812F47F0F04BF0248704773
:1057100080EA010000F0DDB80000C07FB0FA80F33D
:1057200010FA03F2C3F19D030AD0D90501EB122050
:10573000530638BF704700F1010008BF20F0010098
:10574000704700004FF47F0C1CEAD0121EBF1CEA09
:10575000D11392EA0C0F93EA0C0F00F0478090EA05
:10576000010F48BF42F480724FF0004C4CEA002019
:105770004CEA012102EB0302A0FB0113A2F5000297
:10578000002918BF43F001035B0028BF4FEA330331
:1057900042EB22425FEA132C4CEBC2502EBFBCEB13
:1057A000436FB2F57C0F70474FEA036CBCF1004FBA
:1057B00008BF20F00100B2F57C0F38BF70470BD551
:1057C00082F0FF0212F5803FC8BF704700F1C04071
:1057D000D8BF00F00040704700F5000C5FEA4C0CA9
:1057E00048BF7047B0F1C04000F073B890EA010FB5
:1057F0000CEAD11348BF42F48072624538BF63455A
:1058000004D280EA010000F00040704710B500F0BB
:105810001AF800BF8900013E00F007B800F009B88F
:105820005FEA410C5FEA1C6C08D080EA010000F0DE
:1058300050B85FEA400C5FEA1C6CF6D14FF00040B4
:10584000A0F5800070470EF1020E2EF0030E5EF8F8
:10585000044B244204D44FEA4102B2F17F4F11D8E5
:105860004FEA4003B3F17F4F0CD80ED14FEAD07C02
:10587000B2F17F4F0CEB4C0C0CF1020C08BF4CEB5F
:10588000D17C04E04FF0080C01E04FEAD17C0CEB36
:105890004C0324FA03F404F00704B4F1040C06D218
:1058A0000EEB840CBDE810404CF0010C6047DFE8C3
:1058B0000CF0070802024FF00040A0F5800010BD78
:1058C0000846420018BFD2F1807288BF00F0004045
:1058D00010BDFF2141EAD050C005704790EA010F8A
:1058E00048BF81F000413FF5FCAD421A04D882F078
:1058F0000042A0EB020011444FEAD0524FF07F4C1F
:105900001CEA410FA2EBD15318BF9CEA026F4AD0A8
:105910004FF0004C4CEA00204CEA012121FA03FC34
:10592000B0EB0C0C0FD412F0FE0F36D05FEA4C0037
:105930001DD5001240EBC25038BF70471CF03F0F1E
:1059400018BF70470BE0A2F101025FEA1C2040EB98
:10595000C25038BF70471CF07F0F18BF7047C3F1AB
:105960002003994014BF401E20F0010070478008BA
:105970004FEA122308BF7047B0FA80FCA2EB0C027A
:10598000CCF1280C60FA0CF093EA122F04BF00EB64
:10599000C25070474FEAC3707047130A5FEADC10C9
:1059A00008BF7047F6E79CEA026F04D010EA5C0F6C
:1059B00008BF0020704710B5FFF745FF40DFF63EF7
:1059C00081F000407047FAF7B8BE0CF00F03092BC6
:1059D00008BF082000F059800A2B0BD0082B18BFF5
:1059E000704708BF1CF0400F0AD04FF000004FF086
:1059F000000170471CF0400F18BF4FF00040704787
:105A00001CF0100F08D020F0704300F07F4242EAF3
:105A1000D3014FEA4370704700F0604021F07F42AD
:105A200042EA000201F07F4040EA727070474FF096
:105A3000FF0C4CF4E06C1CEA11531CBF9CEA030CF5
:105A40009445C2BFDA4201EB02517047002B0DD0E2
:105A5000BCF1000F0FD0002A01F00041A4BF41F0BB
:105A6000E04141F07F614FF00000704701F00041DC
:105A70004FF00000704750EA01334FF09B0C18BF05
:105A80004CF0806C7FF4F4AB70471CF4801F11D095
:105A90001CF4E02F03D06FEACC31490070474FF07F
:105AA0004050EFF3008222F0704242EA000282F39B
:105AB000008870474FF000007047010202030405A0
:105AC000060708090A0B0C0D0E0F10100102020345
:105AD0000405060708090A0B0C0D0E0F1010000034
